{
  "contractName": "PhaDstake",
  "abi": [
    {
      "anonymous": false,
      "inputs": [
        {
          "indexed": true,
          "internalType": "address",
          "name": "owner",
          "type": "address"
        },
        {
          "indexed": true,
          "internalType": "address",
          "name": "spender",
          "type": "address"
        },
        {
          "indexed": false,
          "internalType": "uint256",
          "name": "amount",
          "type": "uint256"
        }
      ],
      "name": "Approval",
      "type": "event"
    },
    {
      "anonymous": false,
      "inputs": [
        {
          "indexed": true,
          "internalType": "address",
          "name": "delegator",
          "type": "address"
        },
        {
          "indexed": true,
          "internalType": "address",
          "name": "fromDelegate",
          "type": "address"
        },
        {
          "indexed": true,
          "internalType": "address",
          "name": "toDelegate",
          "type": "address"
        }
      ],
      "name": "DelegateChanged",
      "type": "event"
    },
    {
      "anonymous": false,
      "inputs": [
        {
          "indexed": true,
          "internalType": "address",
          "name": "delegate",
          "type": "address"
        },
        {
          "indexed": false,
          "internalType": "uint256",
          "name": "previousBalance",
          "type": "uint256"
        },
        {
          "indexed": false,
          "internalType": "uint256",
          "name": "newBalance",
          "type": "uint256"
        }
      ],
      "name": "DelegateVotesChanged",
      "type": "event"
    },
    {
      "anonymous": false,
      "inputs": [
        {
          "indexed": true,
          "internalType": "address",
          "name": "account",
          "type": "address"
        },
        {
          "indexed": false,
          "internalType": "uint256",
          "name": "amount",
          "type": "uint256"
        }
      ],
      "name": "TokensClaimed",
      "type": "event"
    },
    {
      "anonymous": false,
      "inputs": [
        {
          "indexed": true,
          "internalType": "address",
          "name": "account",
          "type": "address"
        },
        {
          "indexed": false,
          "internalType": "uint256",
          "name": "amount",
          "type": "uint256"
        }
      ],
      "name": "TokensLocked",
      "type": "event"
    },
    {
      "anonymous": false,
      "inputs": [
        {
          "indexed": true,
          "internalType": "address",
          "name": "account",
          "type": "address"
        },
        {
          "indexed": false,
          "internalType": "uint256",
          "name": "amount",
          "type": "uint256"
        }
      ],
      "name": "TokensStaked",
      "type": "event"
    },
    {
      "anonymous": false,
      "inputs": [
        {
          "indexed": true,
          "internalType": "address",
          "name": "account",
          "type": "address"
        },
        {
          "indexed": false,
          "internalType": "uint256",
          "name": "amount",
          "type": "uint256"
        }
      ],
      "name": "TokensUnlocked",
      "type": "event"
    },
    {
      "anonymous": false,
      "inputs": [
        {
          "indexed": true,
          "internalType": "address",
          "name": "account",
          "type": "address"
        },
        {
          "indexed": false,
          "internalType": "uint256",
          "name": "amount",
          "type": "uint256"
        }
      ],
      "name": "TokensUnstaked",
      "type": "event"
    },
    {
      "anonymous": false,
      "inputs": [
        {
          "indexed": true,
          "internalType": "address",
          "name": "from",
          "type": "address"
        },
        {
          "indexed": true,
          "internalType": "address",
          "name": "to",
          "type": "address"
        },
        {
          "indexed": false,
          "internalType": "uint256",
          "name": "amount",
          "type": "uint256"
        }
      ],
      "name": "Transfer",
      "type": "event"
    },
    {
      "constant": true,
      "inputs": [],
      "name": "DEFAULT_UNLOCK_APY",
      "outputs": [
        {
          "internalType": "uint256",
          "name": "",
          "type": "uint256"
        }
      ],
      "payable": false,
      "stateMutability": "view",
      "type": "function"
    },
    {
      "constant": true,
      "inputs": [],
      "name": "DELEGATION_TYPEHASH",
      "outputs": [
        {
          "internalType": "bytes32",
          "name": "",
          "type": "bytes32"
        }
      ],
      "payable": false,
      "stateMutability": "view",
      "type": "function"
    },
    {
      "constant": true,
      "inputs": [],
      "name": "DF_TOKENIZED_DEPOSITS",
      "outputs": [
        {
          "internalType": "address",
          "name": "",
          "type": "address"
        }
      ],
      "payable": false,
      "stateMutability": "view",
      "type": "function"
    },
    {
      "constant": true,
      "inputs": [],
      "name": "DOMAIN_TYPEHASH",
      "outputs": [
        {
          "internalType": "bytes32",
          "name": "",
          "type": "bytes32"
        }
      ],
      "payable": false,
      "stateMutability": "view",
      "type": "function"
    },
    {
      "constant": true,
      "inputs": [],
      "name": "FIRST_STAGE_END_BLOCK",
      "outputs": [
        {
          "internalType": "uint32",
          "name": "",
          "type": "uint32"
        }
      ],
      "payable": false,
      "stateMutability": "view",
      "type": "function"
    },
    {
      "constant": true,
      "inputs": [],
      "name": "HUNDRED_APY_PER_BLOCK",
      "outputs": [
        {
          "internalType": "uint256",
          "name": "",
          "type": "uint256"
        }
      ],
      "payable": false,
      "stateMutability": "view",
      "type": "function"
    },
    {
      "constant": true,
      "inputs": [],
      "name": "UNSTAKED_TIME",
      "outputs": [
        {
          "internalType": "uint32",
          "name": "",
          "type": "uint32"
        }
      ],
      "payable": false,
      "stateMutability": "view",
      "type": "function"
    },
    {
      "constant": true,
      "inputs": [
        {
          "internalType": "address",
          "name": "account",
          "type": "address"
        },
        {
          "internalType": "address",
          "name": "spender",
          "type": "address"
        }
      ],
      "name": "allowance",
      "outputs": [
        {
          "internalType": "uint256",
          "name": "",
          "type": "uint256"
        }
      ],
      "payable": false,
      "stateMutability": "view",
      "type": "function"
    },
    {
      "constant": false,
      "inputs": [
        {
          "internalType": "address",
          "name": "spender",
          "type": "address"
        },
        {
          "internalType": "uint256",
          "name": "rawAmount",
          "type": "uint256"
        }
      ],
      "name": "approve",
      "outputs": [
        {
          "internalType": "bool",
          "name": "",
          "type": "bool"
        }
      ],
      "payable": false,
      "stateMutability": "nonpayable",
      "type": "function"
    },
    {
      "constant": true,
      "inputs": [
        {
          "internalType": "address",
          "name": "account",
          "type": "address"
        }
      ],
      "name": "balanceOf",
      "outputs": [
        {
          "internalType": "uint256",
          "name": "",
          "type": "uint256"
        }
      ],
      "payable": false,
      "stateMutability": "view",
      "type": "function"
    },
    {
      "constant": true,
      "inputs": [
        {
          "internalType": "address",
          "name": "",
          "type": "address"
        },
        {
          "internalType": "uint32",
          "name": "",
          "type": "uint32"
        }
      ],
      "name": "checkpoints",
      "outputs": [
        {
          "internalType": "uint32",
          "name": "fromBlock",
          "type": "uint32"
        },
        {
          "internalType": "uint96",
          "name": "votes",
          "type": "uint96"
        }
      ],
      "payable": false,
      "stateMutability": "view",
      "type": "function"
    },
    {
      "constant": true,
      "inputs": [],
      "name": "decimals",
      "outputs": [
        {
          "internalType": "uint8",
          "name": "",
          "type": "uint8"
        }
      ],
      "payable": false,
      "stateMutability": "view",
      "type": "function"
    },
    {
      "constant": false,
      "inputs": [
        {
          "internalType": "address",
          "name": "delegatee",
          "type": "address"
        }
      ],
      "name": "delegate",
      "outputs": [],
      "payable": false,
      "stateMutability": "nonpayable",
      "type": "function"
    },
    {
      "constant": false,
      "inputs": [
        {
          "internalType": "address",
          "name": "delegatee",
          "type": "address"
        },
        {
          "internalType": "uint256",
          "name": "nonce",
          "type": "uint256"
        },
        {
          "internalType": "uint256",
          "name": "expiry",
          "type": "uint256"
        },
        {
          "internalType": "uint8",
          "name": "v",
          "type": "uint8"
        },
        {
          "internalType": "bytes32",
          "name": "r",
          "type": "bytes32"
        },
        {
          "internalType": "bytes32",
          "name": "s",
          "type": "bytes32"
        }
      ],
      "name": "delegateBySig",
      "outputs": [],
      "payable": false,
      "stateMutability": "nonpayable",
      "type": "function"
    },
    {
      "constant": true,
      "inputs": [
        {
          "internalType": "address",
          "name": "",
          "type": "address"
        }
      ],
      "name": "delegates",
      "outputs": [
        {
          "internalType": "address",
          "name": "",
          "type": "address"
        }
      ],
      "payable": false,
      "stateMutability": "view",
      "type": "function"
    },
    {
      "constant": true,
      "inputs": [
        {
          "internalType": "address",
          "name": "account",
          "type": "address"
        }
      ],
      "name": "getCurrentVotes",
      "outputs": [
        {
          "internalType": "uint96",
          "name": "",
          "type": "uint96"
        }
      ],
      "payable": false,
      "stateMutability": "view",
      "type": "function"
    },
    {
      "constant": true,
      "inputs": [
        {
          "internalType": "address",
          "name": "account",
          "type": "address"
        },
        {
          "internalType": "uint256",
          "name": "blockNumber",
          "type": "uint256"
        }
      ],
      "name": "getPriorVotes",
      "outputs": [
        {
          "internalType": "uint96",
          "name": "",
          "type": "uint96"
        }
      ],
      "payable": false,
      "stateMutability": "view",
      "type": "function"
    },
    {
      "constant": true,
      "inputs": [
        {
          "internalType": "address",
          "name": "",
          "type": "address"
        }
      ],
      "name": "lockedBalances",
      "outputs": [
        {
          "internalType": "uint96",
          "name": "locked",
          "type": "uint96"
        },
        {
          "internalType": "uint32",
          "name": "fromBlock",
          "type": "uint32"
        }
      ],
      "payable": false,
      "stateMutability": "view",
      "type": "function"
    },
    {
      "constant": true,
      "inputs": [],
      "name": "name",
      "outputs": [
        {
          "internalType": "string",
          "name": "",
          "type": "string"
        }
      ],
      "payable": false,
      "stateMutability": "view",
      "type": "function"
    },
    {
      "constant": true,
      "inputs": [
        {
          "internalType": "address",
          "name": "",
          "type": "address"
        }
      ],
      "name": "nonces",
      "outputs": [
        {
          "internalType": "uint256",
          "name": "",
          "type": "uint256"
        }
      ],
      "payable": false,
      "stateMutability": "view",
      "type": "function"
    },
    {
      "constant": true,
      "inputs": [
        {
          "internalType": "address",
          "name": "",
          "type": "address"
        }
      ],
      "name": "numCheckpoints",
      "outputs": [
        {
          "internalType": "uint32",
          "name": "",
          "type": "uint32"
        }
      ],
      "payable": false,
      "stateMutability": "view",
      "type": "function"
    },
    {
      "constant": true,
      "inputs": [
        {
          "internalType": "address",
          "name": "",
          "type": "address"
        }
      ],
      "name": "stakedBalances",
      "outputs": [
        {
          "internalType": "uint96",
          "name": "balance",
          "type": "uint96"
        },
        {
          "internalType": "uint96",
          "name": "pendingBalance",
          "type": "uint96"
        },
        {
          "internalType": "uint32",
          "name": "unstakedTimestamp",
          "type": "uint32"
        }
      ],
      "payable": false,
      "stateMutability": "view",
      "type": "function"
    },
    {
      "constant": true,
      "inputs": [],
      "name": "symbol",
      "outputs": [
        {
          "internalType": "string",
          "name": "",
          "type": "string"
        }
      ],
      "payable": false,
      "stateMutability": "view",
      "type": "function"
    },
    {
      "constant": true,
      "inputs": [],
      "name": "totalSupply",
      "outputs": [
        {
          "internalType": "uint256",
          "name": "",
          "type": "uint256"
        }
      ],
      "payable": false,
      "stateMutability": "view",
      "type": "function"
    },
    {
      "constant": false,
      "inputs": [
        {
          "internalType": "address",
          "name": "dst",
          "type": "address"
        },
        {
          "internalType": "uint256",
          "name": "rawAmount",
          "type": "uint256"
        }
      ],
      "name": "transfer",
      "outputs": [
        {
          "internalType": "bool",
          "name": "",
          "type": "bool"
        }
      ],
      "payable": false,
      "stateMutability": "nonpayable",
      "type": "function"
    },
    {
      "constant": false,
      "inputs": [
        {
          "internalType": "address",
          "name": "src",
          "type": "address"
        },
        {
          "internalType": "address",
          "name": "dst",
          "type": "address"
        },
        {
          "internalType": "uint256",
          "name": "rawAmount",
          "type": "uint256"
        }
      ],
      "name": "transferFrom",
      "outputs": [
        {
          "internalType": "bool",
          "name": "",
          "type": "bool"
        }
      ],
      "payable": false,
      "stateMutability": "nonpayable",
      "type": "function"
    },
    {
      "constant": false,
      "inputs": [
        {
          "internalType": "address",
          "name": "account",
          "type": "address"
        }
      ],
      "name": "initialize",
      "outputs": [],
      "payable": false,
      "stateMutability": "nonpayable",
      "type": "function"
    },
    {
      "constant": true,
      "inputs": [
        {
          "internalType": "address",
          "name": "account",
          "type": "address"
        }
      ],
      "name": "balanceOfStaked",
      "outputs": [
        {
          "internalType": "uint256",
          "name": "",
          "type": "uint256"
        }
      ],
      "payable": false,
      "stateMutability": "view",
      "type": "function"
    },
    {
      "constant": true,
      "inputs": [
        {
          "internalType": "address",
          "name": "account",
          "type": "address"
        }
      ],
      "name": "balanceOfPending",
      "outputs": [
        {
          "internalType": "uint256",
          "name": "",
          "type": "uint256"
        }
      ],
      "payable": false,
      "stateMutability": "view",
      "type": "function"
    },
    {
      "constant": true,
      "inputs": [
        {
          "internalType": "address",
          "name": "account",
          "type": "address"
        }
      ],
      "name": "balanceOfUnlocked",
      "outputs": [
        {
          "internalType": "uint256",
          "name": "",
          "type": "uint256"
        }
      ],
      "payable": false,
      "stateMutability": "view",
      "type": "function"
    },
    {
      "constant": true,
      "inputs": [
        {
          "internalType": "address",
          "name": "account",
          "type": "address"
        }
      ],
      "name": "balanceOfLocked",
      "outputs": [
        {
          "internalType": "uint256",
          "name": "",
          "type": "uint256"
        }
      ],
      "payable": false,
      "stateMutability": "view",
      "type": "function"
    },
    {
      "constant": true,
      "inputs": [
        {
          "internalType": "address",
          "name": "account",
          "type": "address"
        }
      ],
      "name": "balanceOfTransferable",
      "outputs": [
        {
          "internalType": "uint256",
          "name": "",
          "type": "uint256"
        }
      ],
      "payable": false,
      "stateMutability": "view",
      "type": "function"
    },
    {
      "constant": true,
      "inputs": [
        {
          "internalType": "address",
          "name": "account",
          "type": "address"
        }
      ],
      "name": "getStakeMultiplier",
      "outputs": [
        {
          "internalType": "uint256",
          "name": "",
          "type": "uint256"
        }
      ],
      "payable": false,
      "stateMutability": "view",
      "type": "function"
    },
    {
      "constant": true,
      "inputs": [
        {
          "internalType": "address",
          "name": "account",
          "type": "address"
        }
      ],
      "name": "getLiquidityMultiplier",
      "outputs": [
        {
          "internalType": "uint256",
          "name": "",
          "type": "uint256"
        }
      ],
      "payable": false,
      "stateMutability": "view",
      "type": "function"
    },
    {
      "constant": false,
      "inputs": [
        {
          "internalType": "uint256",
          "name": "rawAmount",
          "type": "uint256"
        }
      ],
      "name": "stake",
      "outputs": [],
      "payable": false,
      "stateMutability": "nonpayable",
      "type": "function"
    },
    {
      "constant": false,
      "inputs": [
        {
          "internalType": "uint256",
          "name": "rawAmount",
          "type": "uint256"
        }
      ],
      "name": "unstake",
      "outputs": [],
      "payable": false,
      "stateMutability": "nonpayable",
      "type": "function"
    },
    {
      "constant": false,
      "inputs": [],
      "name": "claimUnstaked",
      "outputs": [],
      "payable": false,
      "stateMutability": "nonpayable",
      "type": "function"
    },
    {
      "constant": false,
      "inputs": [
        {
          "internalType": "address",
          "name": "user",
          "type": "address"
        },
        {
          "internalType": "uint256",
          "name": "lockedAmount",
          "type": "uint256"
        }
      ],
      "name": "__addLockedBalance",
      "outputs": [],
      "payable": false,
      "stateMutability": "nonpayable",
      "type": "function"
    },
    {
      "constant": false,
      "inputs": [
        {
          "internalType": "address",
          "name": "user",
          "type": "address"
        }
      ],
      "name": "__updateLockedBalance",
      "outputs": [],
      "payable": false,
      "stateMutability": "nonpayable",
      "type": "function"
    }
  ],
  "bytecode": "0x608060405234801561001057600080fd5b50614f9b806100206000396000f3fe608060405234801561001057600080fd5b506004361061023d5760003560e01c806370a082311161013b578063c4d66de8116100b8578063dd62ed3e1161007c578063dd62ed3e14610751578063e7a324dc14610781578063e960bb481461079f578063f1127ed8146107cf578063f3a05d4b146108005761023d565b8063c4d66de8146106af578063c82648ef146106cb578063cc670a5d146106e7578063ceddd07d14610717578063d276290d146107475761023d565b8063a694fc3a116100ff578063a694fc3a146105e7578063a9059cbb14610603578063b4b5ea5714610633578063b656f05414610663578063c3cda520146106935761023d565b806370a082311461051b57806375410f0b1461054b578063782d6fe1146105695780637ecebe001461059957806395d89b41146105c95761023d565b806327fd30a7116101c9578063587cde1e1161018d578063587cde1e146104655780635a4512c3146104955780635c19a95c146104b15780636a0bd8d1146104cd5780636fcfff45146104eb5761023d565b806327fd30a7146103ad5780632e17de78146103dd57806330c9106c146103f9578063313ce567146104175780633455f41e146104355761023d565b80631460fa87116102105780631460fa87146102f157806318160ddd146103235780631f1dba041461034157806320606b701461035f57806323b872dd1461037d5761023d565b80630483a7f61461024257806306fdde0314610273578063095ea7b3146102915780630d8ea35d146102c1575b600080fd5b61025c60048036036102579190810190613f2f565b61081e565b60405161026a929190614b42565b60405180910390f35b61027b61086a565b60405161028891906148ce565b60405180910390f35b6102ab60048036036102a69190810190613fe3565b6108a3565b6040516102b891906147c9565b60405180910390f35b6102db60048036036102d69190810190613f2f565b610a53565b6040516102e89190614a92565b60405180910390f35b61030b60048036036103069190810190613f2f565b610ac5565b60405161031a93929190614b94565b60405180910390f35b61032b610b2f565b6040516103389190614a92565b60405180910390f35b610349610b3e565b60405161035691906147ae565b60405180910390f35b610367610b43565b60405161037491906147e4565b60405180910390f35b61039760048036036103929190810190613f94565b610b5a565b6040516103a491906147c9565b60405180910390f35b6103c760048036036103c29190810190613f2f565b610e0b565b6040516103d49190614a92565b60405180910390f35b6103f760048036036103f291908101906140e4565b61106f565b005b61040161130a565b60405161040e9190614aad565b60405180910390f35b61041f61130f565b60405161042c9190614af1565b60405180910390f35b61044f600480360361044a9190810190613f2f565b611314565b60405161045c9190614a92565b60405180910390f35b61047f600480360361047a9190810190613f2f565b61143c565b60405161048c91906147ae565b60405180910390f35b6104af60048036036104aa9190810190613f2f565b61146f565b005b6104cb60048036036104c69190810190613f2f565b6114ea565b005b6104d56114f7565b6040516104e29190614a92565b60405180910390f35b61050560048036036105009190810190613f2f565b611500565b6040516105129190614aad565b60405180910390f35b61053560048036036105309190810190613f2f565b611523565b6040516105429190614a92565b60405180910390f35b610553611592565b6040516105609190614a92565b60405180910390f35b610583600480360361057e9190810190613fe3565b61159d565b6040516105909190614b27565b60405180910390f35b6105b360048036036105ae9190810190613f2f565b6119b0565b6040516105c09190614a92565b60405180910390f35b6105d16119c8565b6040516105de91906148ce565b60405180910390f35b61060160048036036105fc91908101906140e4565b611a01565b005b61061d60048036036106189190810190613fe3565b611c74565b60405161062a91906147c9565b60405180910390f35b61064d60048036036106489190810190613f2f565b611cce565b60405161065a9190614b27565b60405180910390f35b61067d60048036036106789190810190613f2f565b611dbc565b60405161068a9190614a92565b60405180910390f35b6106ad60048036036106a8919081019061401f565b611ed6565b005b6106c960048036036106c49190810190613f2f565b612179565b005b6106e560048036036106e09190810190613fe3565b61226c565b005b61070160048036036106fc9190810190613f2f565b612467565b60405161070e9190614a92565b60405180910390f35b610731600480360361072c9190810190613f2f565b612579565b60405161073e9190614a92565b60405180910390f35b61074f612740565b005b61076b60048036036107669190810190613f58565b612aaa565b6040516107789190614a92565b60405180910390f35b610789612b57565b60405161079691906147e4565b60405180910390f35b6107b960048036036107b49190810190613f2f565b612b6e565b6040516107c69190614a92565b60405180910390f35b6107e960048036036107e491908101906140a8565b612bf1565b6040516107f7929190614ac8565b60405180910390f35b610808612c4a565b6040516108159190614aad565b60405180910390f35b603a6020528060005260406000206000915090508060000160009054906101000a90046bffffffffffffffffffffffff169080600001600c9054906101000a900463ffffffff16905082565b6040518060400160405280600d81526020017f506861726d61637920446546690000000000000000000000000000000000000081525081565b6000807fffffffffffffffffffffffffffffffffffffffffffffffffffffffffffffffff8314156108f6577fffffffffffffffffffffffffffffffffffffffffffffffffffffffffffffffff9050610938565b610935836040518060400160405280601f81526020017f617070726f76653a20616d6f756e742065786365656473203936206269747300815250612c51565b90505b80603360003373ffffffffffffffffffffffffffffffffffffffff1673ffffffffffffffffffffffffffffffffffffffff16815260200190815260200160002060008673ffffffffffffffffffffffffffffffffffffffff1673ffffffffffffffffffffffffffffffffffffffff16815260200190815260200160002060006101000a8154816bffffffffffffffffffffffff02191690836bffffffffffffffffffffffff1602179055508373ffffffffffffffffffffffffffffffffffffffff163373ffffffffffffffffffffffffffffffffffffffff167f8c5be1e5ebec7d5bd14f71427d1e84f3dd0314c0f7b2291e5b200ac8c7c3b92583604051610a409190614b0c565b60405180910390a3600191505092915050565b6000603960008373ffffffffffffffffffffffffffffffffffffffff1673ffffffffffffffffffffffffffffffffffffffff168152602001908152602001600020600001600c9054906101000a90046bffffffffffffffffffffffff166bffffffffffffffffffffffff169050919050565b60396020528060005260406000206000915090508060000160009054906101000a90046bffffffffffffffffffffffff169080600001600c9054906101000a90046bffffffffffffffffffffffff16908060000160189054906101000a900463ffffffff16905083565b6a084595161401484a00000081565b600081565b604051610b4f90614784565b604051809103902081565b6000803390506000603360008773ffffffffffffffffffffffffffffffffffffffff1673ffffffffffffffffffffffffffffffffffffffff16815260200190815260200160002060008373ffffffffffffffffffffffffffffffffffffffff1673ffffffffffffffffffffffffffffffffffffffff16815260200190815260200160002060009054906101000a90046bffffffffffffffffffffffff1690506000610c3a856040518060400160405280601f81526020017f617070726f76653a20616d6f756e742065786365656473203936206269747300815250612c51565b90508673ffffffffffffffffffffffffffffffffffffffff168373ffffffffffffffffffffffffffffffffffffffff1614158015610cb457507fffffffffffffffffffffffffffffffffffffffffffffffffffffffffffffffff6bffffffffffffffffffffffff16826bffffffffffffffffffffffff1614155b15610df2576000610cde8383604051806060016040528060378152602001614daa60379139612caf565b905080603360008a73ffffffffffffffffffffffffffffffffffffffff1673ffffffffffffffffffffffffffffffffffffffff16815260200190815260200160002060008673ffffffffffffffffffffffffffffffffffffffff1673ffffffffffffffffffffffffffffffffffffffff16815260200190815260200160002060006101000a8154816bffffffffffffffffffffffff02191690836bffffffffffffffffffffffff1602179055508373ffffffffffffffffffffffffffffffffffffffff168873ffffffffffffffffffffffffffffffffffffffff167f8c5be1e5ebec7d5bd14f71427d1e84f3dd0314c0f7b2291e5b200ac8c7c3b92583604051610de89190614b0c565b60405180910390a3505b610dfd878783612d20565b600193505050509392505050565b600080600073ffffffffffffffffffffffffffffffffffffffff166370a08231846040518263ffffffff1660e01b8152600401610e4891906147ae565b60206040518083038186803b158015610e6057600080fd5b505afa158015610e74573d6000803e3d6000fd5b505050506040513d601f19601f82011682018060405250610e98919081019061410d565b905060008073ffffffffffffffffffffffffffffffffffffffff16633e5e6d66856040518263ffffffff1660e01b8152600401610ed591906147ae565b60206040518083038186803b158015610eed57600080fd5b505afa158015610f01573d6000803e3d6000fd5b505050506040513d601f19601f82011682018060405250610f25919081019061410d565b90506000811480610f365750600082145b15610f465760009250505061106a565b6000610f528383612d8d565b9050671bc16d674ec800008110610f76576706f05b59d3b20000935050505061106a565b6714d1120d7b1600008110610f985767053444835ec58000935050505061106a565b670de0b6b3a76400008110610fba576703782dace9d90000935050505061106a565b6706f05b59d3b200008110610fdc576701bc16d674ec8000935050505061106a565b67058d15e1762800008110610ffe5767016345785d8a0000935050505061106a565b670429d069189e000081106110205767010a741a46278000935050505061106a565b6702c68af0bb14000081106110415766b1a2bc2ec50000935050505061106a565b67016345785d8a00008110611062576658d15e17628000935050505061106a565b600093505050505b919050565b60006110b0826040518060400160405280601f81526020017f756e7374616b653a20616d6f756e742065786365656473203936206269747300815250612c51565b90506000339050603960008273ffffffffffffffffffffffffffffffffffffffff1673ffffffffffffffffffffffffffffffffffffffff16815260200190815260200160002060000160009054906101000a90046bffffffffffffffffffffffff166bffffffffffffffffffffffff16826bffffffffffffffffffffffff161115611170576040517f08c379a000000000000000000000000000000000000000000000000000000000815260040161116790614952565b60405180910390fd5b61117981612dc5565b600073ffffffffffffffffffffffffffffffffffffffff166324e26241826040518263ffffffff1660e01b81526004016111b391906147ae565b600060405180830381600087803b1580156111cd57600080fd5b505af11580156111e1573d6000803e3d6000fd5b5050505081603960008373ffffffffffffffffffffffffffffffffffffffff1673ffffffffffffffffffffffffffffffffffffffff168152602001908152602001600020600001600c6101000a8154816bffffffffffffffffffffffff02191690836bffffffffffffffffffffffff16021790555042603960008373ffffffffffffffffffffffffffffffffffffffff1673ffffffffffffffffffffffffffffffffffffffff16815260200190815260200160002060000160186101000a81548163ffffffff021916908363ffffffff1602179055508073ffffffffffffffffffffffffffffffffffffffff167f9845e367b683334e5c0b12d7b81721ac518e649376fa65e3d68324e8f34f2679836040516112fd9190614b0c565b60405180910390a2505050565b600081565b601281565b600080603960008473ffffffffffffffffffffffffffffffffffffffff1673ffffffffffffffffffffffffffffffffffffffff16815260200190815260200160002060000160009054906101000a90046bffffffffffffffffffffffff1690506000603960008573ffffffffffffffffffffffffffffffffffffffff1673ffffffffffffffffffffffffffffffffffffffff168152602001908152602001600020600001600c9054906101000a90046bffffffffffffffffffffffff169050806bffffffffffffffffffffffff16826bffffffffffffffffffffffff161161140157600092505050611437565b6114248282604051806060016040528060278152602001614e0d60279139612caf565b6bffffffffffffffffffffffff16925050505b919050565b60356020528060005260406000206000915054906101000a900473ffffffffffffffffffffffffffffffffffffffff1681565b600073ffffffffffffffffffffffffffffffffffffffff163373ffffffffffffffffffffffffffffffffffffffff16146114de576040517f08c379a00000000000000000000000000000000000000000000000000000000081526004016114d5906149b2565b60405180910390fd5b6114e781612dc5565b50565b6114f43382612f5e565b50565b646ebef3048081565b60376020528060005260406000206000915054906101000a900463ffffffff1681565b6000603460008373ffffffffffffffffffffffffffffffffffffffff1673ffffffffffffffffffffffffffffffffffffffff16815260200190815260200160002060009054906101000a90046bffffffffffffffffffffffff166bffffffffffffffffffffffff169050919050565b66354a6ba7a1800081565b60004382106115e1576040517f08c379a00000000000000000000000000000000000000000000000000000000081526004016115d890614912565b60405180910390fd5b6000603760008573ffffffffffffffffffffffffffffffffffffffff1673ffffffffffffffffffffffffffffffffffffffff16815260200190815260200160002060009054906101000a900463ffffffff16905060008163ffffffff16141561164e5760009150506119aa565b82603660008673ffffffffffffffffffffffffffffffffffffffff1673ffffffffffffffffffffffffffffffffffffffff16815260200190815260200160002060006001840363ffffffff1663ffffffff16815260200190815260200160002060000160009054906101000a900463ffffffff1663ffffffff161161175057603660008573ffffffffffffffffffffffffffffffffffffffff1673ffffffffffffffffffffffffffffffffffffffff16815260200190815260200160002060006001830363ffffffff1663ffffffff16815260200190815260200160002060000160049054906101000a90046bffffffffffffffffffffffff169150506119aa565b82603660008673ffffffffffffffffffffffffffffffffffffffff1673ffffffffffffffffffffffffffffffffffffffff16815260200190815260200160002060008063ffffffff16815260200190815260200160002060000160009054906101000a900463ffffffff1663ffffffff1611156117d15760009150506119aa565b600080905060006001830390505b8163ffffffff168163ffffffff16111561192c576000600283830363ffffffff168161180757fe5b0482039050611814613e55565b603660008973ffffffffffffffffffffffffffffffffffffffff1673ffffffffffffffffffffffffffffffffffffffff16815260200190815260200160002060008363ffffffff1663ffffffff1681526020019081526020016000206040518060400160405290816000820160009054906101000a900463ffffffff1663ffffffff1663ffffffff1681526020016000820160049054906101000a90046bffffffffffffffffffffffff166bffffffffffffffffffffffff166bffffffffffffffffffffffff1681525050905086816000015163ffffffff161415611904578060200151955050505050506119aa565b86816000015163ffffffff16101561191e57819350611925565b6001820392505b50506117df565b603660008773ffffffffffffffffffffffffffffffffffffffff1673ffffffffffffffffffffffffffffffffffffffff16815260200190815260200160002060008363ffffffff1663ffffffff16815260200190815260200160002060000160049054906101000a90046bffffffffffffffffffffffff1693505050505b92915050565b60386020528060005260406000206000915090505481565b6040518060400160405280600481526020017f506861440000000000000000000000000000000000000000000000000000000081525081565b6000611a42826040518060400160405280601d81526020017f7374616b653a20616d6f756e7420657863656564732039362062697473000000815250612c51565b90506000339050611a5281611dbc565b826bffffffffffffffffffffffff161115611aa2576040517f08c379a0000000000000000000000000000000000000000000000000000000008152600401611a9990614a72565b60405180910390fd5b611aab81612dc5565b600073ffffffffffffffffffffffffffffffffffffffff166324e26241826040518263ffffffff1660e01b8152600401611ae591906147ae565b600060405180830381600087803b158015611aff57600080fd5b505af1158015611b13573d6000803e3d6000fd5b50505050611bb1603960008373ffffffffffffffffffffffffffffffffffffffff1673ffffffffffffffffffffffffffffffffffffffff16815260200190815260200160002060000160009054906101000a90046bffffffffffffffffffffffff16836040518060400160405280601781526020017f7374616b653a20616d6f756e74206f766572666c6f777300000000000000000081525061311e565b603960008373ffffffffffffffffffffffffffffffffffffffff1673ffffffffffffffffffffffffffffffffffffffff16815260200190815260200160002060000160006101000a8154816bffffffffffffffffffffffff02191690836bffffffffffffffffffffffff1602179055508073ffffffffffffffffffffffffffffffffffffffff167fb539ca1e5c8d398ddf1c41c30166f33404941683be4683319b57669a93dad4ef83604051611c679190614b0c565b60405180910390a2505050565b600080611cb6836040518060400160405280602081526020017f7472616e736665723a20616d6f756e7420657863656564732039362062697473815250612c51565b9050611cc3338583612d20565b600191505092915050565b600080603760008473ffffffffffffffffffffffffffffffffffffffff1673ffffffffffffffffffffffffffffffffffffffff16815260200190815260200160002060009054906101000a900463ffffffff16905060008163ffffffff1611611d38576000611db4565b603660008473ffffffffffffffffffffffffffffffffffffffff1673ffffffffffffffffffffffffffffffffffffffff16815260200190815260200160002060006001830363ffffffff1663ffffffff16815260200190815260200160002060000160049054906101000a90046bffffffffffffffffffffffff165b915050919050565b600080611e93603460008573ffffffffffffffffffffffffffffffffffffffff1673ffffffffffffffffffffffffffffffffffffffff16815260200190815260200160002060009054906101000a90046bffffffffffffffffffffffff16603960008673ffffffffffffffffffffffffffffffffffffffff1673ffffffffffffffffffffffffffffffffffffffff16815260200190815260200160002060000160009054906101000a90046bffffffffffffffffffffffff166040518060600160405280602d8152602001614e66602d9139612caf565b9050611ec081611ea285612b6e565b6040518060600160405280602d8152602001614e66602d9139612caf565b6bffffffffffffffffffffffff16915050919050565b6000604051611ee490614784565b60405180910390206040518060400160405280600d81526020017f506861726d61637920446546690000000000000000000000000000000000000081525080519060200120611f31613194565b30604051602001611f459493929190614844565b6040516020818303038152906040528051906020012090506000604051611f6b90614799565b6040518091039020888888604051602001611f8994939291906147ff565b60405160208183030381529060405280519060200120905060008282604051602001611fb692919061474d565b604051602081830303815290604052805190602001209050600060018288888860405160008152602001604052604051611ff39493929190614889565b6020604051602081039080840390855afa158015612015573d6000803e3d6000fd5b505050602060405103519050600073ffffffffffffffffffffffffffffffffffffffff168173ffffffffffffffffffffffffffffffffffffffff161415612091576040517f08c379a000000000000000000000000000000000000000000000000000000000815260040161208890614972565b60405180910390fd5b603860008273ffffffffffffffffffffffffffffffffffffffff1673ffffffffffffffffffffffffffffffffffffffff1681526020019081526020016000206000815480929190600101919050558914612120576040517f08c379a000000000000000000000000000000000000000000000000000000000815260040161211790614a52565b60405180910390fd5b87421115612163576040517f08c379a000000000000000000000000000000000000000000000000000000000815260040161215a906149d2565b60405180910390fd5b61216d818b612f5e565b50505050505050505050565b600060019054906101000a900460ff1680612198575061219761319d565b5b806121af57506000809054906101000a900460ff16155b6121ee576040517f08c379a00000000000000000000000000000000000000000000000000000000081526004016121e590614a12565b60405180910390fd5b60008060019054906101000a900460ff16159050801561223e576001600060016101000a81548160ff02191690831515021790555060016000806101000a81548160ff0219169083151502179055505b612247826131b4565b80156122685760008060016101000a81548160ff0219169083151502179055505b5050565b600073ffffffffffffffffffffffffffffffffffffffff163373ffffffffffffffffffffffffffffffffffffffff16146122db576040517f08c379a00000000000000000000000000000000000000000000000000000000081526004016122d2906149b2565b60405180910390fd5b600061231c826040518060400160405280601e81526020017f6c6f636b65643a20616d6f756e74206578636565647320393620626974730000815250612c51565b90506000603a60008573ffffffffffffffffffffffffffffffffffffffff1673ffffffffffffffffffffffffffffffffffffffff16815260200190815260200160002090506123bd8160000160009054906101000a90046bffffffffffffffffffffffff16836040518060400160405280601881526020017f6c6f636b65643a20616d6f756e74206f766572666c6f7773000000000000000081525061311e565b8160000160006101000a8154816bffffffffffffffffffffffff02191690836bffffffffffffffffffffffff160217905550600081600001600c6101000a81548163ffffffff021916908363ffffffff1602179055508373ffffffffffffffffffffffffffffffffffffffff167fac87f20a77d28ee8bbb58ec87ea8fa968b3393efae1a368fd50b767c2847391c846040516124599190614a92565b60405180910390a250505050565b600080670de0b6b3a764000061247c84611314565b8161248357fe5b0490506203d09081106124a1576706f05b59d3b20000915050612574565b61c35081106124bb5767063eb89da4ed0000915050612574565b6161a881106124d5576705e5e73f8d8a8000915050612574565b61271081106124ef5767058d15e176280000915050612574565b6113888110612509576704db732547630000915050612574565b6109c4811061252357670429d069189e0000915050612574565b6101f4811061253d576703782dace9d90000915050612574565b60fa8110612556576702c68af0bb140000915050612574565b6032811061256e5766354a6ba7a18000915050612574565b60009150505b919050565b6000612583613e83565b603a60008473ffffffffffffffffffffffffffffffffffffffff1673ffffffffffffffffffffffffffffffffffffffff1681526020019081526020016000206040518060400160405290816000820160009054906101000a90046bffffffffffffffffffffffff166bffffffffffffffffffffffff166bffffffffffffffffffffffff16815260200160008201600c9054906101000a900463ffffffff1663ffffffff1663ffffffff16815250509050600061263d613388565b9050600082600001516bffffffffffffffffffffffff16148061266a575080826020015163ffffffff1610155b1561267a5760009250505061273b565b600061269082846020015163ffffffff16613390565b905060006126ad66354a6ba7a180006126a888612467565b6133aa565b90506126c1816126bc88610e0b565b6133aa565b905060006126dd6126d284846133c4565b646ebef30480613404565b905060006126fd86600001516bffffffffffffffffffffffff16836133c4565b905085600001516bffffffffffffffffffffffff16811161271e5780612732565b85600001516bffffffffffffffffffffffff165b96505050505050505b919050565b60003390506000603960008373ffffffffffffffffffffffffffffffffffffffff1673ffffffffffffffffffffffffffffffffffffffff16815260200190815260200160002060000160189054906101000a900463ffffffff1663ffffffff1690506000816bffffffffffffffffffffffff161180156127f857506201518063ffffffff166127e84283604051806060016040528060288152602001614d8260289139612caf565b6bffffffffffffffffffffffff16115b612837576040517f08c379a000000000000000000000000000000000000000000000000000000000815260040161282e90614932565b60405180910390fd5b6000603960008473ffffffffffffffffffffffffffffffffffffffff1673ffffffffffffffffffffffffffffffffffffffff168152602001908152602001600020600001600c9054906101000a90046bffffffffffffffffffffffff169050612913603960008573ffffffffffffffffffffffffffffffffffffffff1673ffffffffffffffffffffffffffffffffffffffff16815260200190815260200160002060000160009054906101000a90046bffffffffffffffffffffffff1682604051806060016040528060258152602001614e9360259139612caf565b603960008573ffffffffffffffffffffffffffffffffffffffff1673ffffffffffffffffffffffffffffffffffffffff16815260200190815260200160002060000160006101000a8154816bffffffffffffffffffffffff02191690836bffffffffffffffffffffffff1602179055506000603960008573ffffffffffffffffffffffffffffffffffffffff1673ffffffffffffffffffffffffffffffffffffffff168152602001908152602001600020600001600c6101000a8154816bffffffffffffffffffffffff02191690836bffffffffffffffffffffffff1602179055506000603960008573ffffffffffffffffffffffffffffffffffffffff1673ffffffffffffffffffffffffffffffffffffffff16815260200190815260200160002060000160186101000a81548163ffffffff021916908363ffffffff1602179055508273ffffffffffffffffffffffffffffffffffffffff167f896e034966eaaf1adc54acc0f257056febbd300c9e47182cf761982cf1f5e43082604051612a9d9190614b0c565b60405180910390a2505050565b6000603360008473ffffffffffffffffffffffffffffffffffffffff1673ffffffffffffffffffffffffffffffffffffffff16815260200190815260200160002060008373ffffffffffffffffffffffffffffffffffffffff1673ffffffffffffffffffffffffffffffffffffffff16815260200190815260200160002060009054906101000a90046bffffffffffffffffffffffff166bffffffffffffffffffffffff16905092915050565b604051612b6390614799565b604051809103902081565b6000612bea603a60008473ffffffffffffffffffffffffffffffffffffffff1673ffffffffffffffffffffffffffffffffffffffff16815260200190815260200160002060000160009054906101000a90046bffffffffffffffffffffffff166bffffffffffffffffffffffff16612be584612579565b613390565b9050919050565b6036602052816000526040600020602052806000526040600020600091509150508060000160009054906101000a900463ffffffff16908060000160049054906101000a90046bffffffffffffffffffffffff16905082565b6201518081565b60006c0100000000000000000000000083108290612ca5576040517f08c379a0000000000000000000000000000000000000000000000000000000008152600401612c9c91906148f0565b60405180910390fd5b5082905092915050565b6000836bffffffffffffffffffffffff16836bffffffffffffffffffffffff1611158290612d13576040517f08c379a0000000000000000000000000000000000000000000000000000000008152600401612d0a91906148f0565b60405180910390fd5b5082840390509392505050565b82816bffffffffffffffffffffffff16612d3982611dbc565b811115612d7b576040517f08c379a0000000000000000000000000000000000000000000000000000000008152600401612d7290614992565b60405180910390fd5b612d86858585613430565b5050505050565b600081612db5612da585670de0b6b3a7640000613404565b60028581612daf57fe5b046133aa565b81612dbc57fe5b04905092915050565b6000603a60008373ffffffffffffffffffffffffffffffffffffffff1673ffffffffffffffffffffffffffffffffffffffff168152602001908152602001600020905060008160000160009054906101000a90046bffffffffffffffffffffffff166bffffffffffffffffffffffff161415612e415750612f5b565b6000612e4c83612579565b9050612e8d8260000160009054906101000a90046bffffffffffffffffffffffff16826040518060600160405280602c8152602001614de1602c9139612caf565b8260000160006101000a8154816bffffffffffffffffffffffff02191690836bffffffffffffffffffffffff160217905550612ee8612eca613388565b604051806060016040528060328152602001614e3460329139613811565b82600001600c6101000a81548163ffffffff021916908363ffffffff1602179055508273ffffffffffffffffffffffffffffffffffffffff167fe7b379c6c1fa169e9079c25e9143b127637eef8ec8c9d5c06ddb4ab3e119588882604051612f509190614a92565b60405180910390a250505b50565b6000603560008473ffffffffffffffffffffffffffffffffffffffff1673ffffffffffffffffffffffffffffffffffffffff16815260200190815260200160002060009054906101000a900473ffffffffffffffffffffffffffffffffffffffff1690506000603460008573ffffffffffffffffffffffffffffffffffffffff1673ffffffffffffffffffffffffffffffffffffffff16815260200190815260200160002060009054906101000a90046bffffffffffffffffffffffff16905082603560008673ffffffffffffffffffffffffffffffffffffffff1673ffffffffffffffffffffffffffffffffffffffff16815260200190815260200160002060006101000a81548173ffffffffffffffffffffffffffffffffffffffff021916908373ffffffffffffffffffffffffffffffffffffffff1602179055508273ffffffffffffffffffffffffffffffffffffffff168273ffffffffffffffffffffffffffffffffffffffff168573ffffffffffffffffffffffffffffffffffffffff167f3134e8a2e6d97e929a7e54011ea5485d7d196dd5f0ba4d4ef95803e8e3fc257f60405160405180910390a4613118828483613867565b50505050565b6000808385019050846bffffffffffffffffffffffff16816bffffffffffffffffffffffff1610158390613188576040517f08c379a000000000000000000000000000000000000000000000000000000000815260040161317f91906148f0565b60405180910390fd5b50809150509392505050565b60006001905090565b6000803090506000813b9050600081149250505090565b600060019054906101000a900460ff16806131d357506131d261319d565b5b806131ea57506000809054906101000a900460ff16155b613229576040517f08c379a000000000000000000000000000000000000000000000000000000000815260040161322090614a12565b60405180910390fd5b60008060019054906101000a900460ff161590508015613279576001600060016101000a81548160ff02191690831515021790555060016000806101000a81548160ff0219169083151502179055505b6a084595161401484a000000603460008473ffffffffffffffffffffffffffffffffffffffff1673ffffffffffffffffffffffffffffffffffffffff16815260200190815260200160002060006101000a8154816bffffffffffffffffffffffff02191690836bffffffffffffffffffffffff1602179055508173ffffffffffffffffffffffffffffffffffffffff16600073ffffffffffffffffffffffffffffffffffffffff167fddf252ad1be2c89b69c2b068fc378daa952ba7f163c4a11628f55a4df523b3ef6a084595161401484a00000060405161335b9190614a92565b60405180910390a380156133845760008060016101000a81548160ff0219169083151502179055505b5050565b600043905090565b60008282840391508111156133a457600080fd5b92915050565b60008282840191508110156133be57600080fd5b92915050565b6000670de0b6b3a76400006133f46133dc8585613404565b6002670de0b6b3a7640000816133ee57fe5b046133aa565b816133fb57fe5b04905092915050565b600080821480613421575082828385029250828161341e57fe5b04145b61342a57600080fd5b92915050565b600073ffffffffffffffffffffffffffffffffffffffff168373ffffffffffffffffffffffffffffffffffffffff1614156134a0576040517f08c379a0000000000000000000000000000000000000000000000000000000008152600401613497906149f2565b60405180910390fd5b600073ffffffffffffffffffffffffffffffffffffffff168273ffffffffffffffffffffffffffffffffffffffff161415613510576040517f08c379a000000000000000000000000000000000000000000000000000000000815260040161350790614a32565b60405180910390fd5b61358a603460008573ffffffffffffffffffffffffffffffffffffffff1673ffffffffffffffffffffffffffffffffffffffff16815260200190815260200160002060009054906101000a90046bffffffffffffffffffffffff1682604051806060016040528060308152602001614eb860309139612caf565b603460008573ffffffffffffffffffffffffffffffffffffffff1673ffffffffffffffffffffffffffffffffffffffff16815260200190815260200160002060006101000a8154816bffffffffffffffffffffffff02191690836bffffffffffffffffffffffff160217905550613671603460008473ffffffffffffffffffffffffffffffffffffffff1673ffffffffffffffffffffffffffffffffffffffff16815260200190815260200160002060009054906101000a90046bffffffffffffffffffffffff16826040518060600160405280602a8152602001614d58602a913961311e565b603460008473ffffffffffffffffffffffffffffffffffffffff1673ffffffffffffffffffffffffffffffffffffffff16815260200190815260200160002060006101000a8154816bffffffffffffffffffffffff02191690836bffffffffffffffffffffffff1602179055508173ffffffffffffffffffffffffffffffffffffffff168373ffffffffffffffffffffffffffffffffffffffff167fddf252ad1be2c89b69c2b068fc378daa952ba7f163c4a11628f55a4df523b3ef8360405161373b9190614b0c565b60405180910390a361380c603560008573ffffffffffffffffffffffffffffffffffffffff1673ffffffffffffffffffffffffffffffffffffffff16815260200190815260200160002060009054906101000a900473ffffffffffffffffffffffffffffffffffffffff16603560008573ffffffffffffffffffffffffffffffffffffffff1673ffffffffffffffffffffffffffffffffffffffff16815260200190815260200160002060009054906101000a900473ffffffffffffffffffffffffffffffffffffffff1683613867565b505050565b60006401000000008310829061385d576040517f08c379a000000000000000000000000000000000000000000000000000000000815260040161385491906148f0565b60405180910390fd5b5082905092915050565b8173ffffffffffffffffffffffffffffffffffffffff168373ffffffffffffffffffffffffffffffffffffffff16141580156138b157506000816bffffffffffffffffffffffff16115b15613b5d57600073ffffffffffffffffffffffffffffffffffffffff168373ffffffffffffffffffffffffffffffffffffffff1614613a09576000603760008573ffffffffffffffffffffffffffffffffffffffff1673ffffffffffffffffffffffffffffffffffffffff16815260200190815260200160002060009054906101000a900463ffffffff1690506000808263ffffffff16116139545760006139d0565b603660008673ffffffffffffffffffffffffffffffffffffffff1673ffffffffffffffffffffffffffffffffffffffff16815260200190815260200160002060006001840363ffffffff1663ffffffff16815260200190815260200160002060000160049054906101000a90046bffffffffffffffffffffffff165b905060006139f78285604051806060016040528060228152602001614f1660229139612caf565b9050613a0586848484613b62565b5050505b600073ffffffffffffffffffffffffffffffffffffffff168273ffffffffffffffffffffffffffffffffffffffff1614613b5c576000603760008473ffffffffffffffffffffffffffffffffffffffff1673ffffffffffffffffffffffffffffffffffffffff16815260200190815260200160002060009054906101000a900463ffffffff1690506000808263ffffffff1611613aa7576000613b23565b603660008573ffffffffffffffffffffffffffffffffffffffff1673ffffffffffffffffffffffffffffffffffffffff16815260200190815260200160002060006001840363ffffffff1663ffffffff16815260200190815260200160002060000160049054906101000a90046bffffffffffffffffffffffff165b90506000613b4a8285604051806060016040528060218152602001614f386021913961311e565b9050613b5885848484613b62565b5050505b5b505050565b6000613b86436040518060600160405280602e8152602001614ee8602e9139613811565b905060008463ffffffff16118015613c1b57508063ffffffff16603660008773ffffffffffffffffffffffffffffffffffffffff1673ffffffffffffffffffffffffffffffffffffffff16815260200190815260200160002060006001870363ffffffff1663ffffffff16815260200190815260200160002060000160009054906101000a900463ffffffff1663ffffffff16145b15613cb65781603660008773ffffffffffffffffffffffffffffffffffffffff1673ffffffffffffffffffffffffffffffffffffffff16815260200190815260200160002060006001870363ffffffff1663ffffffff16815260200190815260200160002060000160046101000a8154816bffffffffffffffffffffffff02191690836bffffffffffffffffffffffff160217905550613dfe565b60405180604001604052808263ffffffff168152602001836bffffffffffffffffffffffff16815250603660008773ffffffffffffffffffffffffffffffffffffffff1673ffffffffffffffffffffffffffffffffffffffff16815260200190815260200160002060008663ffffffff1663ffffffff16815260200190815260200160002060008201518160000160006101000a81548163ffffffff021916908363ffffffff16021790555060208201518160000160046101000a8154816bffffffffffffffffffffffff02191690836bffffffffffffffffffffffff16021790555090505060018401603760008773ffffffffffffffffffffffffffffffffffffffff1673ffffffffffffffffffffffffffffffffffffffff16815260200190815260200160002060006101000a81548163ffffffff021916908363ffffffff1602179055505b8473ffffffffffffffffffffffffffffffffffffffff167fdec2bacdd2f05b59de34da9b523dff8be42e5e38e818c82fdb0bae774387a7248484604051613e46929190614b6b565b60405180910390a25050505050565b6040518060400160405280600063ffffffff16815260200160006bffffffffffffffffffffffff1681525090565b604051806040016040528060006bffffffffffffffffffffffff168152602001600063ffffffff1681525090565b600081359050613ec081614ce4565b92915050565b600081359050613ed581614cfb565b92915050565b600081359050613eea81614d12565b92915050565b600081519050613eff81614d12565b92915050565b600081359050613f1481614d29565b92915050565b600081359050613f2981614d40565b92915050565b600060208284031215613f4157600080fd5b6000613f4f84828501613eb1565b91505092915050565b60008060408385031215613f6b57600080fd5b6000613f7985828601613eb1565b9250506020613f8a85828601613eb1565b9150509250929050565b600080600060608486031215613fa957600080fd5b6000613fb786828701613eb1565b9350506020613fc886828701613eb1565b9250506040613fd986828701613edb565b9150509250925092565b60008060408385031215613ff657600080fd5b600061400485828601613eb1565b925050602061401585828601613edb565b9150509250929050565b60008060008060008060c0878903121561403857600080fd5b600061404689828a01613eb1565b965050602061405789828a01613edb565b955050604061406889828a01613edb565b945050606061407989828a01613f1a565b935050608061408a89828a01613ec6565b92505060a061409b89828a01613ec6565b9150509295509295509295565b600080604083850312156140bb57600080fd5b60006140c985828601613eb1565b92505060206140da85828601613f05565b9150509250929050565b6000602082840312156140f657600080fd5b600061410484828501613edb565b91505092915050565b60006020828403121561411f57600080fd5b600061412d84828501613ef0565b91505092915050565b61413f81614bfd565b82525050565b61414e81614c0f565b82525050565b61415d81614c1b565b82525050565b61417461416f82614c1b565b614cc9565b82525050565b600061418582614bd6565b61418f8185614be1565b935061419f818560208601614c96565b6141a881614cd3565b840191505092915050565b60006141be82614bcb565b6141c88185614be1565b93506141d8818560208601614c96565b6141e181614cd3565b840191505092915050565b60006141f9602183614be1565b91507f6765745072696f72566f7465733a206e6f74207965742064657465726d696e6560008301527f64000000000000000000000000000000000000000000000000000000000000006020830152604082019050919050565b600061425f602f83614be1565b91507f636c61696d556e7374616b65643a207769746864726177616c2074696d65206860008301527f6173206e6f742079657420636f6d6500000000000000000000000000000000006020830152604082019050919050565b60006142c5600283614bf2565b91507f19010000000000000000000000000000000000000000000000000000000000006000830152600282019050919050565b6000614305601b83614be1565b91507f496e76616c6964207374616b656420746f6b656e20616d6f756e7400000000006000830152602082019050919050565b6000614345602083614be1565b91507f64656c656761746542795369673a20696e76616c6964207369676e61747572656000830152602082019050919050565b6000614385602a83614be1565b91507f496e73756666696369656e7420616d6f756e74206f66207472616e736665726160008301527f626c6520746f6b656e73000000000000000000000000000000000000000000006020830152604082019050919050565b60006143eb601183614be1565b91507f5065726d697373696f6e2064656e6965640000000000000000000000000000006000830152602082019050919050565b600061442b602083614be1565b91507f64656c656761746542795369673a207369676e617475726520657870697265646000830152602082019050919050565b600061446b604383614bf2565b91507f454950373132446f6d61696e28737472696e67206e616d652c75696e7432353660008301527f20636861696e49642c6164647265737320766572696679696e67436f6e74726160208301527f63742900000000000000000000000000000000000000000000000000000000006040830152604382019050919050565b60006144f7603683614be1565b91507f5f7472616e73666572546f6b656e733a2063616e6e6f74207472616e7366657260008301527f2066726f6d20746865207a65726f2061646472657373000000000000000000006020830152604082019050919050565b600061455d602e83614be1565b91507f436f6e747261637420696e7374616e63652068617320616c726561647920626560008301527f656e20696e697469616c697a65640000000000000000000000000000000000006020830152604082019050919050565b60006145c3603483614be1565b91507f5f7472616e73666572546f6b656e733a2063616e6e6f74207472616e7366657260008301527f20746f20746865207a65726f20616464726573730000000000000000000000006020830152604082019050919050565b6000614629601c83614be1565b91507f64656c656761746542795369673a20696e76616c6964206e6f6e6365000000006000830152602082019050919050565b6000614669603a83614bf2565b91507f44656c65676174696f6e28616464726573732064656c6567617465652c75696e60008301527f74323536206e6f6e63652c75696e7432353620657870697279290000000000006020830152603a82019050919050565b60006146cf601183614be1565b91507f4e6f7420656e6f75676820746f6b656e730000000000000000000000000000006000830152602082019050919050565b61470b81614c45565b82525050565b61471a81614c4f565b82525050565b61472981614c5f565b82525050565b61473881614c84565b82525050565b61474781614c6c565b82525050565b6000614758826142b8565b91506147648285614163565b6020820191506147748284614163565b6020820191508190509392505050565b600061478f8261445e565b9150819050919050565b60006147a48261465c565b9150819050919050565b60006020820190506147c36000830184614136565b92915050565b60006020820190506147de6000830184614145565b92915050565b60006020820190506147f96000830184614154565b92915050565b60006080820190506148146000830187614154565b6148216020830186614136565b61482e6040830185614702565b61483b6060830184614702565b95945050505050565b60006080820190506148596000830187614154565b6148666020830186614154565b6148736040830185614702565b6148806060830184614136565b95945050505050565b600060808201905061489e6000830187614154565b6148ab6020830186614720565b6148b86040830185614154565b6148c56060830184614154565b95945050505050565b600060208201905081810360008301526148e881846141b3565b905092915050565b6000602082019050818103600083015261490a818461417a565b905092915050565b6000602082019050818103600083015261492b816141ec565b9050919050565b6000602082019050818103600083015261494b81614252565b9050919050565b6000602082019050818103600083015261496b816142f8565b9050919050565b6000602082019050818103600083015261498b81614338565b9050919050565b600060208201905081810360008301526149ab81614378565b9050919050565b600060208201905081810360008301526149cb816143de565b9050919050565b600060208201905081810360008301526149eb8161441e565b9050919050565b60006020820190508181036000830152614a0b816144ea565b9050919050565b60006020820190508181036000830152614a2b81614550565b9050919050565b60006020820190508181036000830152614a4b816145b6565b9050919050565b60006020820190508181036000830152614a6b8161461c565b9050919050565b60006020820190508181036000830152614a8b816146c2565b9050919050565b6000602082019050614aa76000830184614702565b92915050565b6000602082019050614ac26000830184614711565b92915050565b6000604082019050614add6000830185614711565b614aea602083018461473e565b9392505050565b6000602082019050614b066000830184614720565b92915050565b6000602082019050614b21600083018461472f565b92915050565b6000602082019050614b3c600083018461473e565b92915050565b6000604082019050614b57600083018561473e565b614b646020830184614711565b9392505050565b6000604082019050614b80600083018561472f565b614b8d602083018461472f565b9392505050565b6000606082019050614ba9600083018661473e565b614bb6602083018561473e565b614bc36040830184614711565b949350505050565b600081519050919050565b600081519050919050565b600082825260208201905092915050565b600081905092915050565b6000614c0882614c25565b9050919050565b60008115159050919050565b6000819050919050565b600073ffffffffffffffffffffffffffffffffffffffff82169050919050565b6000819050919050565b600063ffffffff82169050919050565b600060ff82169050919050565b60006bffffffffffffffffffffffff82169050919050565b6000614c8f82614c6c565b9050919050565b60005b83811015614cb4578082015181840152602081019050614c99565b83811115614cc3576000848401525b50505050565b6000819050919050565b6000601f19601f8301169050919050565b614ced81614bfd565b8114614cf857600080fd5b50565b614d0481614c1b565b8114614d0f57600080fd5b50565b614d1b81614c45565b8114614d2657600080fd5b50565b614d3281614c4f565b8114614d3d57600080fd5b50565b614d4981614c5f565b8114614d5457600080fd5b5056fe5f7472616e73666572546f6b656e733a207472616e7366657220616d6f756e74206f766572666c6f7773636c61696d556e7374616b65643a20746f6f20736d616c6c20626c6f636b2e74696d657374616d707472616e7366657246726f6d3a207472616e7366657220616d6f756e742065786365656473207370656e64657220616c6c6f77616e63655f7570646174654c6f636b656442616c616e63653a20616d6f756e7420657863656564732062616c616e636562616c616e63654f665374616b65643a20616d6f756e7420657863656564732062616c616e63655f7570646174654c6f636b656442616c616e63653a20626c6f636b206e756d6265722065786365656473203332206269747362616c616e63654f665472616e7366657261626c653a20616d6f756e7420657863656564732062616c616e6365636c61696d556e7374616b65643a20616d6f756e7420657863656564732062616c616e63655f7472616e73666572546f6b656e733a207472616e7366657220616d6f756e7420657863656564732062616c616e63655f7772697465436865636b706f696e743a20626c6f636b206e756d626572206578636565647320333220626974735f6d6f7665566f7465733a20766f746520616d6f756e7420756e646572666c6f77735f6d6f7665566f7465733a20766f746520616d6f756e74206f766572666c6f7773a365627a7a72315820b096b82f89e744d4da27985e9980b7761e768aceb0920447259e9839750974416c6578706572696d656e74616cf564736f6c63430005100040",
  "source": "pragma solidity ^0.5.16;\npragma experimental ABIEncoderV2;\n\nimport \"@openzeppelin/upgrades/contracts/Initializable.sol\";\n\nimport \"./PhaD.sol\";\nimport \"../interfaces/IDfTokenizedDepositsDevs_v2.sol\";\n\nimport \"../utils/DSMath.sol\";\n\n\ncontract PhaDstake is\n    Initializable,\n    DSMath,\n    Pharmacy\n{\n\n    struct StakedBalance {\n        uint96 balance;\n        uint96 pendingBalance;\n        uint32 unstakedTimestamp;\n    }\n    mapping (address => StakedBalance) public stakedBalances;\n\n    struct LockedBalance {\n        uint96 locked;\n        uint32 fromBlock;\n    }\n    mapping (address => LockedBalance) public lockedBalances;   // locked balances (from phad distribution stage 1)\n\n\n    uint32 public constant UNSTAKED_TIME = 1 days;\n\n    address public constant DF_TOKENIZED_DEPOSITS = address(0); // TODO:\n    uint32 public constant FIRST_STAGE_END_BLOCK = 0;           // TODO:\n\n    uint256 public constant HUNDRED_APY_PER_BLOCK = 475650000000;   // 100 APY\n    uint256 public constant DEFAULT_UNLOCK_APY = 0.015 * 1e18;      // 1.5 APY\n\n\n    event TokensStaked(address indexed account, uint256 amount);\n    event TokensUnstaked(address indexed account, uint256 amount);\n    event TokensClaimed(address indexed account, uint256 amount);\n    event TokensLocked(address indexed account, uint256 amount);\n    event TokensUnlocked(address indexed account, uint256 amount);\n\n\n    modifier enoughTransferable(address sender, uint amount) {\n        require(amount <= balanceOfTransferable(sender), \"Insufficient amount of transferable tokens\");\n        _;\n    }\n\n\n    /**\n     * @notice Initialize a new Pharmacy\n     * @param account The initial account to grant all the tokens\n     */\n    function initialize(address account) public initializer {\n        // Initialize Parent Contract\n        Pharmacy.initialize(account);\n    }\n\n\n    // ** PUBLIC VIEW BalanceOf functions **\n\n    function balanceOfStaked(address account) public view returns (uint) {\n        uint96 stakedBalance = stakedBalances[account].balance;\n        uint96 pendingBalance = stakedBalances[account].pendingBalance;\n\n        if (stakedBalance <= pendingBalance) {\n            return 0;\n        }\n\n        return sub96(stakedBalance, pendingBalance, \"balanceOfStaked: amount exceeds balance\");\n    }\n\n    function balanceOfPending(address account) public view returns (uint) {\n        return stakedBalances[account].pendingBalance;\n    }\n\n    function balanceOfUnlocked(address account) public view returns (uint) {\n        LockedBalance memory lockedBalance = lockedBalances[account];\n\n        uint curBlock = _getBlockNumber();\n        if (lockedBalance.locked == 0 || lockedBalance.fromBlock >= curBlock) {\n            return 0;\n        }\n\n        uint duration = sub(curBlock, lockedBalance.fromBlock);\n\n        uint multiplier = add(DEFAULT_UNLOCK_APY, getStakeMultiplier(account));\n        multiplier = add(multiplier, getLiquidityMultiplier(account));\n\n        uint unlockedPercent = mul(wmul(duration, multiplier), HUNDRED_APY_PER_BLOCK);\n        uint unlockedTokens = wmul(lockedBalance.locked, unlockedPercent);\n\n        return (unlockedTokens > lockedBalance.locked) ? lockedBalance.locked : unlockedTokens;\n    }\n\n    function balanceOfLocked(address account) public view returns (uint) {\n        return sub(lockedBalances[account].locked, balanceOfUnlocked(account));\n    }\n\n    function balanceOfTransferable(address account) public view returns (uint) {\n        // sub total balance of staked with pending (staked + pending tokens)\n        uint96 accBalance = sub96(balances[account], stakedBalances[account].balance, \"balanceOfTransferable: amount exceeds balance\");\n        return sub96(accBalance, uint96(balanceOfLocked(account)), \"balanceOfTransferable: amount exceeds balance\");\n    }\n\n\n    // ** PUBLIC VIEW Multiplier functions **\n\n    function getStakeMultiplier(address account) public view returns (uint) {\n        uint stakedAmount = balanceOfStaked(account) / 1e18;\n\n        if (stakedAmount        >= 250000) {   // 250k - +50 APY of locked PhaD\n            return 0.50 * 1e18;\n        } else if (stakedAmount >= 50000) {    // 50k - +45 APY of locked PhaD\n            return 0.45 * 1e18;\n        } else if (stakedAmount >= 25000) {    // 25k - +42.5 APY of locked PhaD\n            return 0.425 * 1e18;\n        } else if (stakedAmount >= 10000) {    // 10k - +40 APY of locked PhaD\n            return 0.40 * 1e18;\n        } else if (stakedAmount >= 5000) {     // 5k - +35 APY of locked PhaD\n            return 0.35 * 1e18;\n        } else if (stakedAmount >= 2500) {     // 2.5k - +30 APY of locked PhaD\n            return 0.30 * 1e18;\n        } else if (stakedAmount >= 500) {      // 0.5k - +25 APY of locked PhaD\n            return 0.25 * 1e18;\n        } else if (stakedAmount >= 250) {      // 0.25k - +20 APY of locked PhaD\n            return 0.20 * 1e18;\n        } else if (stakedAmount >= 50) {       // 50 - +1.5 APY of locked PhaD\n            return 0.015 * 1e18;\n        }\n\n        return 0;\n    }\n\n    function getLiquidityMultiplier(address account) public view returns (uint) {\n        uint curLiquidity = IDfTokenizedDeposits(DF_TOKENIZED_DEPOSITS).balanceOf(account);\n        uint initLiquidity = IDfTokenizedDeposits(DF_TOKENIZED_DEPOSITS).firstStageMaxLiquidity(account);\n\n        // exit\n        if (initLiquidity == 0 || curLiquidity == 0) {\n            return 0;\n        }\n\n        uint ratio = wdiv(curLiquidity, initLiquidity);\n\n        if (ratio        >= 2.0 * 1e18) {   // x2.0 - +50 APY of locked PhaD\n            return 0.50 * 1e18;\n        } else if (ratio >= 1.5 * 1e18) {   // x1.5 - +37.5 APY of locked PhaD\n            return 0.375 * 1e18;\n        } else if (ratio >= 1.0 * 1e18) {   // x1.0 - +25 APY of locked PhaD\n            return 0.25 * 1e18;\n        } else if (ratio >= 0.5 * 1e18) {   // x0.5 - +12.5 APY of locked PhaD\n            return 0.125 * 1e18;\n        } else if (ratio >= 0.4 * 1e18) {   // x0.4 - +10 APY of locked PhaD\n            return 0.10 * 1e18;\n        } else if (ratio >= 0.3 * 1e18) {   // x0.3 - +7.5 APY of locked PhaD\n            return 0.075 * 1e18;\n        } else if (ratio >= 0.2 * 1e18) {   // x0.2 - +5 APY of locked PhaD\n            return 0.05 * 1e18;\n        } else if (ratio >= 0.1 * 1e18) {   // x0.1 - +2.5 APY of locked PhaD\n            return 0.025 * 1e18;\n        }\n\n        return 0;\n    }\n\n\n    // ** PUBLIC functions **\n\n    function stake(uint rawAmount) public {\n        uint96 amount = safe96(rawAmount, \"stake: amount exceeds 96 bits\");\n\n        address account = msg.sender;\n        require(amount <= balanceOfTransferable(account), \"Not enough tokens\");\n\n        // update locked balance\n        _updateLockedBalance(account);\n\n        // Withdraw dai and phad profit\n        IDfTokenizedDeposits(DF_TOKENIZED_DEPOSITS).withdrawProfit(account);\n\n        // UPD StakedBalance state\n        stakedBalances[account].balance = add96(stakedBalances[account].balance, amount, \"stake: amount overflows\");\n\n        emit TokensStaked(account, amount);\n    }\n\n    function unstake(uint rawAmount) public {\n        uint96 amount = safe96(rawAmount, \"unstake: amount exceeds 96 bits\");\n\n        address account = msg.sender;\n\n        require(amount <= stakedBalances[account].balance, \"Invalid staked token amount\");\n\n        // update locked balance\n        _updateLockedBalance(account);\n\n        // Withdraw dai and phad profit\n        IDfTokenizedDeposits(DF_TOKENIZED_DEPOSITS).withdrawProfit(account);\n\n        // UPD StakedBalance state\n        stakedBalances[account].pendingBalance = amount;\n        stakedBalances[account].unstakedTimestamp = uint32(block.timestamp);\n\n        emit TokensUnstaked(account, amount);\n    }\n\n    function claimUnstaked() public {\n        address account = msg.sender;\n        uint96 unstakedTimestamp = uint96(stakedBalances[account].unstakedTimestamp);\n        require(\n            unstakedTimestamp > 0 &&\n            sub96(uint96(block.timestamp), unstakedTimestamp, \"claimUnstaked: too small block.timestamp\") > UNSTAKED_TIME,\n            \"claimUnstaked: withdrawal time has not yet come\"\n        );\n\n        uint96 amount = stakedBalances[account].pendingBalance;\n\n        // UPD StakedBalance state\n        stakedBalances[account].balance = sub96(stakedBalances[account].balance, amount, \"claimUnstaked: amount exceeds balance\");\n        stakedBalances[account].pendingBalance = 0;\n        stakedBalances[account].unstakedTimestamp = 0;\n\n        emit TokensClaimed(account, amount);\n    }\n\n\n    // ** only DfTokenizedDeposits functions **\n\n    // call this function after 1 stage PhaD distribution in Tokenized\n    function __addLockedBalance(address user, uint lockedAmount) public {\n        require(msg.sender == DF_TOKENIZED_DEPOSITS, \"Permission denied\");\n\n        uint96 amount = safe96(lockedAmount, \"locked: amount exceeds 96 bits\");\n\n        LockedBalance storage lockedBalance = lockedBalances[user];\n        lockedBalance.locked = add96(lockedBalance.locked, amount, \"locked: amount overflows\");\n        lockedBalance.fromBlock = FIRST_STAGE_END_BLOCK;\n\n        emit TokensLocked(user, lockedAmount);\n    }\n\n    // call this function from deposit & withdraw in Tokenized\n    function __updateLockedBalance(address user) public {\n        require(msg.sender == DF_TOKENIZED_DEPOSITS, \"Permission denied\");\n        _updateLockedBalance(user);\n    }\n\n\n    // ** INTERNAL VIEW functions **\n\n    function _getBlockNumber() internal view returns(uint) {\n        return block.number;\n    }\n\n\n    // ** INTERNAL functions **\n\n    function _transferTokens(address src, address dst, uint96 amount) internal enoughTransferable(src, amount) {\n        super._transferTokens(src, dst, amount);\n    }\n\n    function _updateLockedBalance(address account) internal {\n        LockedBalance storage lockedBalance = lockedBalances[account];\n\n        // exit\n        if (lockedBalance.locked == 0) {\n            return;\n        }\n\n        uint unlockedBalance = balanceOfUnlocked(account);\n        lockedBalance.locked = sub96(lockedBalance.locked, uint96(unlockedBalance), \"_updateLockedBalance: amount exceeds balance\");\n        lockedBalance.fromBlock = safe32(_getBlockNumber(), \"_updateLockedBalance: block number exceeds 32 bits\");\n\n        emit TokensUnlocked(account, unlockedBalance);\n    }\n}\n",
  "sourcePath": "/home/me/new/a/core/contracts/PhaDstake.sol",
  "compiler": {
    "name": "solc",
    "version": "0.5.16+commit.9c3226ce.Emscripten.clang"
  },
  "schemaVersion": "3.3.4",
  "updatedAt": "2021-04-24T06:34:49.719Z",
  "devdoc": {
    "methods": {
      "allowance(address,address)": {
        "params": {
          "account": "The address of the account holding the funds",
          "spender": "The address of the account spending the funds"
        },
        "return": "The number of tokens approved"
      },
      "approve(address,uint256)": {
        "details": "This will overwrite the approval amount for `spender` and is subject to issues noted [here](https://eips.ethereum.org/EIPS/eip-20#approve)",
        "params": {
          "rawAmount": "The number of tokens that are approved (2^256-1 means infinite)",
          "spender": "The address of the account which may transfer tokens"
        },
        "return": "Whether or not the approval succeeded"
      },
      "balanceOf(address)": {
        "params": {
          "account": "The address of the account to get the balance of"
        },
        "return": "The number of tokens held"
      },
      "delegate(address)": {
        "params": {
          "delegatee": "The address to delegate votes to"
        }
      },
      "delegateBySig(address,uint256,uint256,uint8,bytes32,bytes32)": {
        "params": {
          "delegatee": "The address to delegate votes to",
          "expiry": "The time at which to expire the signature",
          "nonce": "The contract state required to match the signature",
          "r": "Half of the ECDSA signature pair",
          "s": "Half of the ECDSA signature pair",
          "v": "The recovery byte of the signature"
        }
      },
      "getCurrentVotes(address)": {
        "params": {
          "account": "The address to get votes balance"
        },
        "return": "The number of current votes for `account`"
      },
      "getPriorVotes(address,uint256)": {
        "details": "Block number must be a finalized block or else this function will revert to prevent misinformation.",
        "params": {
          "account": "The address of the account to check",
          "blockNumber": "The block number to get the vote balance at"
        },
        "return": "The number of votes the account had as of the given block"
      },
      "initialize(address)": {
        "params": {
          "account": "The initial account to grant all the tokens"
        }
      },
      "transfer(address,uint256)": {
        "params": {
          "dst": "The address of the destination account",
          "rawAmount": "The number of tokens to transfer"
        },
        "return": "Whether or not the transfer succeeded"
      },
      "transferFrom(address,address,uint256)": {
        "params": {
          "dst": "The address of the destination account",
          "rawAmount": "The number of tokens to transfer",
          "src": "The address of the source account"
        },
        "return": "Whether or not the transfer succeeded"
      }
    }
  },
  "userdoc": {
    "methods": {
      "allowance(address,address)": {
        "notice": "Get the number of tokens `spender` is approved to spend on behalf of `account`"
      },
      "approve(address,uint256)": {
        "notice": "Approve `spender` to transfer up to `amount` from `src`"
      },
      "balanceOf(address)": {
        "notice": "Get the number of tokens held by the `account`"
      },
      "delegate(address)": {
        "notice": "Delegate votes from `msg.sender` to `delegatee`"
      },
      "delegateBySig(address,uint256,uint256,uint8,bytes32,bytes32)": {
        "notice": "Delegates votes from signatory to `delegatee`"
      },
      "getCurrentVotes(address)": {
        "notice": "Gets the current votes balance for `account`"
      },
      "getPriorVotes(address,uint256)": {
        "notice": "Determine the prior number of votes for an account as of a block number"
      },
      "initialize(address)": {
        "notice": "Initialize a new Pharmacy"
      },
      "transfer(address,uint256)": {
        "notice": "Transfer `amount` tokens from `msg.sender` to `dst`"
      },
      "transferFrom(address,address,uint256)": {
        "notice": "Transfer `amount` tokens from `src` to `dst`"
      }
    }
  }
}