{
  "contractName": "Pharmacy",
  "abi": [
    {
      "anonymous": false,
      "inputs": [
        {
          "indexed": true,
          "internalType": "address",
          "name": "owner",
          "type": "address"
        },
        {
          "indexed": true,
          "internalType": "address",
          "name": "spender",
          "type": "address"
        },
        {
          "indexed": false,
          "internalType": "uint256",
          "name": "amount",
          "type": "uint256"
        }
      ],
      "name": "Approval",
      "type": "event"
    },
    {
      "anonymous": false,
      "inputs": [
        {
          "indexed": true,
          "internalType": "address",
          "name": "delegator",
          "type": "address"
        },
        {
          "indexed": true,
          "internalType": "address",
          "name": "fromDelegate",
          "type": "address"
        },
        {
          "indexed": true,
          "internalType": "address",
          "name": "toDelegate",
          "type": "address"
        }
      ],
      "name": "DelegateChanged",
      "type": "event"
    },
    {
      "anonymous": false,
      "inputs": [
        {
          "indexed": true,
          "internalType": "address",
          "name": "delegate",
          "type": "address"
        },
        {
          "indexed": false,
          "internalType": "uint256",
          "name": "previousBalance",
          "type": "uint256"
        },
        {
          "indexed": false,
          "internalType": "uint256",
          "name": "newBalance",
          "type": "uint256"
        }
      ],
      "name": "DelegateVotesChanged",
      "type": "event"
    },
    {
      "anonymous": false,
      "inputs": [
        {
          "indexed": true,
          "internalType": "address",
          "name": "from",
          "type": "address"
        },
        {
          "indexed": true,
          "internalType": "address",
          "name": "to",
          "type": "address"
        },
        {
          "indexed": false,
          "internalType": "uint256",
          "name": "amount",
          "type": "uint256"
        }
      ],
      "name": "Transfer",
      "type": "event"
    },
    {
      "constant": true,
      "inputs": [],
      "name": "DELEGATION_TYPEHASH",
      "outputs": [
        {
          "internalType": "bytes32",
          "name": "",
          "type": "bytes32"
        }
      ],
      "payable": false,
      "stateMutability": "view",
      "type": "function"
    },
    {
      "constant": true,
      "inputs": [],
      "name": "DOMAIN_TYPEHASH",
      "outputs": [
        {
          "internalType": "bytes32",
          "name": "",
          "type": "bytes32"
        }
      ],
      "payable": false,
      "stateMutability": "view",
      "type": "function"
    },
    {
      "constant": true,
      "inputs": [
        {
          "internalType": "address",
          "name": "",
          "type": "address"
        },
        {
          "internalType": "uint32",
          "name": "",
          "type": "uint32"
        }
      ],
      "name": "checkpoints",
      "outputs": [
        {
          "internalType": "uint32",
          "name": "fromBlock",
          "type": "uint32"
        },
        {
          "internalType": "uint96",
          "name": "votes",
          "type": "uint96"
        }
      ],
      "payable": false,
      "stateMutability": "view",
      "type": "function"
    },
    {
      "constant": true,
      "inputs": [],
      "name": "decimals",
      "outputs": [
        {
          "internalType": "uint8",
          "name": "",
          "type": "uint8"
        }
      ],
      "payable": false,
      "stateMutability": "view",
      "type": "function"
    },
    {
      "constant": true,
      "inputs": [
        {
          "internalType": "address",
          "name": "",
          "type": "address"
        }
      ],
      "name": "delegates",
      "outputs": [
        {
          "internalType": "address",
          "name": "",
          "type": "address"
        }
      ],
      "payable": false,
      "stateMutability": "view",
      "type": "function"
    },
    {
      "constant": true,
      "inputs": [],
      "name": "name",
      "outputs": [
        {
          "internalType": "string",
          "name": "",
          "type": "string"
        }
      ],
      "payable": false,
      "stateMutability": "view",
      "type": "function"
    },
    {
      "constant": true,
      "inputs": [
        {
          "internalType": "address",
          "name": "",
          "type": "address"
        }
      ],
      "name": "nonces",
      "outputs": [
        {
          "internalType": "uint256",
          "name": "",
          "type": "uint256"
        }
      ],
      "payable": false,
      "stateMutability": "view",
      "type": "function"
    },
    {
      "constant": true,
      "inputs": [
        {
          "internalType": "address",
          "name": "",
          "type": "address"
        }
      ],
      "name": "numCheckpoints",
      "outputs": [
        {
          "internalType": "uint32",
          "name": "",
          "type": "uint32"
        }
      ],
      "payable": false,
      "stateMutability": "view",
      "type": "function"
    },
    {
      "constant": true,
      "inputs": [],
      "name": "symbol",
      "outputs": [
        {
          "internalType": "string",
          "name": "",
          "type": "string"
        }
      ],
      "payable": false,
      "stateMutability": "view",
      "type": "function"
    },
    {
      "constant": true,
      "inputs": [],
      "name": "totalSupply",
      "outputs": [
        {
          "internalType": "uint256",
          "name": "",
          "type": "uint256"
        }
      ],
      "payable": false,
      "stateMutability": "view",
      "type": "function"
    },
    {
      "constant": false,
      "inputs": [
        {
          "internalType": "address",
          "name": "account",
          "type": "address"
        }
      ],
      "name": "initialize",
      "outputs": [],
      "payable": false,
      "stateMutability": "nonpayable",
      "type": "function"
    },
    {
      "constant": true,
      "inputs": [
        {
          "internalType": "address",
          "name": "account",
          "type": "address"
        },
        {
          "internalType": "address",
          "name": "spender",
          "type": "address"
        }
      ],
      "name": "allowance",
      "outputs": [
        {
          "internalType": "uint256",
          "name": "",
          "type": "uint256"
        }
      ],
      "payable": false,
      "stateMutability": "view",
      "type": "function"
    },
    {
      "constant": false,
      "inputs": [
        {
          "internalType": "address",
          "name": "spender",
          "type": "address"
        },
        {
          "internalType": "uint256",
          "name": "rawAmount",
          "type": "uint256"
        }
      ],
      "name": "approve",
      "outputs": [
        {
          "internalType": "bool",
          "name": "",
          "type": "bool"
        }
      ],
      "payable": false,
      "stateMutability": "nonpayable",
      "type": "function"
    },
    {
      "constant": true,
      "inputs": [
        {
          "internalType": "address",
          "name": "account",
          "type": "address"
        }
      ],
      "name": "balanceOf",
      "outputs": [
        {
          "internalType": "uint256",
          "name": "",
          "type": "uint256"
        }
      ],
      "payable": false,
      "stateMutability": "view",
      "type": "function"
    },
    {
      "constant": false,
      "inputs": [
        {
          "internalType": "address",
          "name": "dst",
          "type": "address"
        },
        {
          "internalType": "uint256",
          "name": "rawAmount",
          "type": "uint256"
        }
      ],
      "name": "transfer",
      "outputs": [
        {
          "internalType": "bool",
          "name": "",
          "type": "bool"
        }
      ],
      "payable": false,
      "stateMutability": "nonpayable",
      "type": "function"
    },
    {
      "constant": false,
      "inputs": [
        {
          "internalType": "address",
          "name": "src",
          "type": "address"
        },
        {
          "internalType": "address",
          "name": "dst",
          "type": "address"
        },
        {
          "internalType": "uint256",
          "name": "rawAmount",
          "type": "uint256"
        }
      ],
      "name": "transferFrom",
      "outputs": [
        {
          "internalType": "bool",
          "name": "",
          "type": "bool"
        }
      ],
      "payable": false,
      "stateMutability": "nonpayable",
      "type": "function"
    },
    {
      "constant": false,
      "inputs": [
        {
          "internalType": "address",
          "name": "delegatee",
          "type": "address"
        }
      ],
      "name": "delegate",
      "outputs": [],
      "payable": false,
      "stateMutability": "nonpayable",
      "type": "function"
    },
    {
      "constant": false,
      "inputs": [
        {
          "internalType": "address",
          "name": "delegatee",
          "type": "address"
        },
        {
          "internalType": "uint256",
          "name": "nonce",
          "type": "uint256"
        },
        {
          "internalType": "uint256",
          "name": "expiry",
          "type": "uint256"
        },
        {
          "internalType": "uint8",
          "name": "v",
          "type": "uint8"
        },
        {
          "internalType": "bytes32",
          "name": "r",
          "type": "bytes32"
        },
        {
          "internalType": "bytes32",
          "name": "s",
          "type": "bytes32"
        }
      ],
      "name": "delegateBySig",
      "outputs": [],
      "payable": false,
      "stateMutability": "nonpayable",
      "type": "function"
    },
    {
      "constant": true,
      "inputs": [
        {
          "internalType": "address",
          "name": "account",
          "type": "address"
        }
      ],
      "name": "getCurrentVotes",
      "outputs": [
        {
          "internalType": "uint96",
          "name": "",
          "type": "uint96"
        }
      ],
      "payable": false,
      "stateMutability": "view",
      "type": "function"
    },
    {
      "constant": true,
      "inputs": [
        {
          "internalType": "address",
          "name": "account",
          "type": "address"
        },
        {
          "internalType": "uint256",
          "name": "blockNumber",
          "type": "uint256"
        }
      ],
      "name": "getPriorVotes",
      "outputs": [
        {
          "internalType": "uint96",
          "name": "",
          "type": "uint96"
        }
      ],
      "payable": false,
      "stateMutability": "view",
      "type": "function"
    }
  ],
  "bytecode": "0x608060405234801561001057600080fd5b50612f91806100206000396000f3fe608060405234801561001057600080fd5b506004361061012c5760003560e01c8063782d6fe1116100ad578063c3cda52011610071578063c3cda52014610393578063c4d66de8146103af578063dd62ed3e146103cb578063e7a324dc146103fb578063f1127ed8146104195761012c565b8063782d6fe1146102b55780637ecebe00146102e557806395d89b4114610315578063a9059cbb14610333578063b4b5ea57146103635761012c565b8063313ce567116100f4578063313ce567146101eb578063587cde1e146102095780635c19a95c146102395780636fcfff451461025557806370a08231146102855761012c565b806306fdde0314610131578063095ea7b31461014f57806318160ddd1461017f57806320606b701461019d57806323b872dd146101bb575b600080fd5b61013961044a565b6040516101469190612ac3565b60405180910390f35b610169600480360361016491908101906123b6565b610483565b60405161017691906129be565b60405180910390f35b610187610633565b6040516101949190612be7565b60405180910390f35b6101a5610642565b6040516101b291906129d9565b60405180910390f35b6101d560048036036101d09190810190612367565b610659565b6040516101e291906129be565b60405180910390f35b6101f361090a565b6040516102009190612c46565b60405180910390f35b610223600480360361021e9190810190612302565b61090f565b60405161023091906129a3565b60405180910390f35b610253600480360361024e9190810190612302565b610942565b005b61026f600480360361026a9190810190612302565b61094f565b60405161027c9190612c02565b60405180910390f35b61029f600480360361029a9190810190612302565b610972565b6040516102ac9190612be7565b60405180910390f35b6102cf60048036036102ca91908101906123b6565b6109e1565b6040516102dc9190612c7c565b60405180910390f35b6102ff60048036036102fa9190810190612302565b610df4565b60405161030c9190612be7565b60405180910390f35b61031d610e0c565b60405161032a9190612ac3565b60405180910390f35b61034d600480360361034891908101906123b6565b610e45565b60405161035a91906129be565b60405180910390f35b61037d60048036036103789190810190612302565b610e9f565b60405161038a9190612c7c565b60405180910390f35b6103ad60048036036103a891908101906123f2565b610f8d565b005b6103c960048036036103c49190810190612302565b611230565b005b6103e560048036036103e0919081019061232b565b611404565b6040516103f29190612be7565b60405180910390f35b6104036114b1565b60405161041091906129d9565b60405180910390f35b610433600480360361042e919081019061247b565b6114c8565b604051610441929190612c1d565b60405180910390f35b6040518060400160405280600d81526020017f506861726d61637920446546690000000000000000000000000000000000000081525081565b6000807fffffffffffffffffffffffffffffffffffffffffffffffffffffffffffffffff8314156104d6577fffffffffffffffffffffffffffffffffffffffffffffffffffffffffffffffff9050610518565b610515836040518060400160405280601f81526020017f617070726f76653a20616d6f756e742065786365656473203936206269747300815250611521565b90505b80603360003373ffffffffffffffffffffffffffffffffffffffff1673ffffffffffffffffffffffffffffffffffffffff16815260200190815260200160002060008673ffffffffffffffffffffffffffffffffffffffff1673ffffffffffffffffffffffffffffffffffffffff16815260200190815260200160002060006101000a8154816bffffffffffffffffffffffff02191690836bffffffffffffffffffffffff1602179055508373ffffffffffffffffffffffffffffffffffffffff163373ffffffffffffffffffffffffffffffffffffffff167f8c5be1e5ebec7d5bd14f71427d1e84f3dd0314c0f7b2291e5b200ac8c7c3b925836040516106209190612c61565b60405180910390a3600191505092915050565b6a084595161401484a00000081565b60405161064e90612979565b604051809103902081565b6000803390506000603360008773ffffffffffffffffffffffffffffffffffffffff1673ffffffffffffffffffffffffffffffffffffffff16815260200190815260200160002060008373ffffffffffffffffffffffffffffffffffffffff1673ffffffffffffffffffffffffffffffffffffffff16815260200190815260200160002060009054906101000a90046bffffffffffffffffffffffff1690506000610739856040518060400160405280601f81526020017f617070726f76653a20616d6f756e742065786365656473203936206269747300815250611521565b90508673ffffffffffffffffffffffffffffffffffffffff168373ffffffffffffffffffffffffffffffffffffffff16141580156107b357507fffffffffffffffffffffffffffffffffffffffffffffffffffffffffffffffff6bffffffffffffffffffffffff16826bffffffffffffffffffffffff1614155b156108f15760006107dd8383604051806060016040528060378152602001612e776037913961157f565b905080603360008a73ffffffffffffffffffffffffffffffffffffffff1673ffffffffffffffffffffffffffffffffffffffff16815260200190815260200160002060008673ffffffffffffffffffffffffffffffffffffffff1673ffffffffffffffffffffffffffffffffffffffff16815260200190815260200160002060006101000a8154816bffffffffffffffffffffffff02191690836bffffffffffffffffffffffff1602179055508373ffffffffffffffffffffffffffffffffffffffff168873ffffffffffffffffffffffffffffffffffffffff167f8c5be1e5ebec7d5bd14f71427d1e84f3dd0314c0f7b2291e5b200ac8c7c3b925836040516108e79190612c61565b60405180910390a3505b6108fc8787836115f0565b600193505050509392505050565b601281565b60356020528060005260406000206000915054906101000a900473ffffffffffffffffffffffffffffffffffffffff1681565b61094c33826119d1565b50565b60376020528060005260406000206000915054906101000a900463ffffffff1681565b6000603460008373ffffffffffffffffffffffffffffffffffffffff1673ffffffffffffffffffffffffffffffffffffffff16815260200190815260200160002060009054906101000a90046bffffffffffffffffffffffff166bffffffffffffffffffffffff169050919050565b6000438210610a25576040517f08c379a0000000000000000000000000000000000000000000000000000000008152600401610a1c90612b07565b60405180910390fd5b6000603760008573ffffffffffffffffffffffffffffffffffffffff1673ffffffffffffffffffffffffffffffffffffffff16815260200190815260200160002060009054906101000a900463ffffffff16905060008163ffffffff161415610a92576000915050610dee565b82603660008673ffffffffffffffffffffffffffffffffffffffff1673ffffffffffffffffffffffffffffffffffffffff16815260200190815260200160002060006001840363ffffffff1663ffffffff16815260200190815260200160002060000160009054906101000a900463ffffffff1663ffffffff1611610b9457603660008573ffffffffffffffffffffffffffffffffffffffff1673ffffffffffffffffffffffffffffffffffffffff16815260200190815260200160002060006001830363ffffffff1663ffffffff16815260200190815260200160002060000160049054906101000a90046bffffffffffffffffffffffff16915050610dee565b82603660008673ffffffffffffffffffffffffffffffffffffffff1673ffffffffffffffffffffffffffffffffffffffff16815260200190815260200160002060008063ffffffff16815260200190815260200160002060000160009054906101000a900463ffffffff1663ffffffff161115610c15576000915050610dee565b600080905060006001830390505b8163ffffffff168163ffffffff161115610d70576000600283830363ffffffff1681610c4b57fe5b0482039050610c5861226b565b603660008973ffffffffffffffffffffffffffffffffffffffff1673ffffffffffffffffffffffffffffffffffffffff16815260200190815260200160002060008363ffffffff1663ffffffff1681526020019081526020016000206040518060400160405290816000820160009054906101000a900463ffffffff1663ffffffff1663ffffffff1681526020016000820160049054906101000a90046bffffffffffffffffffffffff166bffffffffffffffffffffffff166bffffffffffffffffffffffff1681525050905086816000015163ffffffff161415610d4857806020015195505050505050610dee565b86816000015163ffffffff161015610d6257819350610d69565b6001820392505b5050610c23565b603660008773ffffffffffffffffffffffffffffffffffffffff1673ffffffffffffffffffffffffffffffffffffffff16815260200190815260200160002060008363ffffffff1663ffffffff16815260200190815260200160002060000160049054906101000a90046bffffffffffffffffffffffff1693505050505b92915050565b60386020528060005260406000206000915090505481565b6040518060400160405280600481526020017f506861440000000000000000000000000000000000000000000000000000000081525081565b600080610e87836040518060400160405280602081526020017f7472616e736665723a20616d6f756e7420657863656564732039362062697473815250611521565b9050610e943385836115f0565b600191505092915050565b600080603760008473ffffffffffffffffffffffffffffffffffffffff1673ffffffffffffffffffffffffffffffffffffffff16815260200190815260200160002060009054906101000a900463ffffffff16905060008163ffffffff1611610f09576000610f85565b603660008473ffffffffffffffffffffffffffffffffffffffff1673ffffffffffffffffffffffffffffffffffffffff16815260200190815260200160002060006001830363ffffffff1663ffffffff16815260200190815260200160002060000160049054906101000a90046bffffffffffffffffffffffff165b915050919050565b6000604051610f9b90612979565b60405180910390206040518060400160405280600d81526020017f506861726d61637920446546690000000000000000000000000000000000000081525080519060200120610fe8611b91565b30604051602001610ffc9493929190612a39565b60405160208183030381529060405280519060200120905060006040516110229061298e565b604051809103902088888860405160200161104094939291906129f4565b6040516020818303038152906040528051906020012090506000828260405160200161106d929190612942565b6040516020818303038152906040528051906020012090506000600182888888604051600081526020016040526040516110aa9493929190612a7e565b6020604051602081039080840390855afa1580156110cc573d6000803e3d6000fd5b505050602060405103519050600073ffffffffffffffffffffffffffffffffffffffff168173ffffffffffffffffffffffffffffffffffffffff161415611148576040517f08c379a000000000000000000000000000000000000000000000000000000000815260040161113f90612b27565b60405180910390fd5b603860008273ffffffffffffffffffffffffffffffffffffffff1673ffffffffffffffffffffffffffffffffffffffff16815260200190815260200160002060008154809291906001019190505589146111d7576040517f08c379a00000000000000000000000000000000000000000000000000000000081526004016111ce90612bc7565b60405180910390fd5b8742111561121a576040517f08c379a000000000000000000000000000000000000000000000000000000000815260040161121190612b47565b60405180910390fd5b611224818b6119d1565b50505050505050505050565b600060019054906101000a900460ff168061124f575061124e611b9a565b5b8061126657506000809054906101000a900460ff16155b6112a5576040517f08c379a000000000000000000000000000000000000000000000000000000000815260040161129c90612b87565b60405180910390fd5b60008060019054906101000a900460ff1615905080156112f5576001600060016101000a81548160ff02191690831515021790555060016000806101000a81548160ff0219169083151502179055505b6a084595161401484a000000603460008473ffffffffffffffffffffffffffffffffffffffff1673ffffffffffffffffffffffffffffffffffffffff16815260200190815260200160002060006101000a8154816bffffffffffffffffffffffff02191690836bffffffffffffffffffffffff1602179055508173ffffffffffffffffffffffffffffffffffffffff16600073ffffffffffffffffffffffffffffffffffffffff167fddf252ad1be2c89b69c2b068fc378daa952ba7f163c4a11628f55a4df523b3ef6a084595161401484a0000006040516113d79190612be7565b60405180910390a380156114005760008060016101000a81548160ff0219169083151502179055505b5050565b6000603360008473ffffffffffffffffffffffffffffffffffffffff1673ffffffffffffffffffffffffffffffffffffffff16815260200190815260200160002060008373ffffffffffffffffffffffffffffffffffffffff1673ffffffffffffffffffffffffffffffffffffffff16815260200190815260200160002060009054906101000a90046bffffffffffffffffffffffff166bffffffffffffffffffffffff16905092915050565b6040516114bd9061298e565b604051809103902081565b6036602052816000526040600020602052806000526040600020600091509150508060000160009054906101000a900463ffffffff16908060000160049054906101000a90046bffffffffffffffffffffffff16905082565b60006c0100000000000000000000000083108290611575576040517f08c379a000000000000000000000000000000000000000000000000000000000815260040161156c9190612ae5565b60405180910390fd5b5082905092915050565b6000836bffffffffffffffffffffffff16836bffffffffffffffffffffffff16111582906115e3576040517f08c379a00000000000000000000000000000000000000000000000000000000081526004016115da9190612ae5565b60405180910390fd5b5082840390509392505050565b600073ffffffffffffffffffffffffffffffffffffffff168373ffffffffffffffffffffffffffffffffffffffff161415611660576040517f08c379a000000000000000000000000000000000000000000000000000000000815260040161165790612b67565b60405180910390fd5b600073ffffffffffffffffffffffffffffffffffffffff168273ffffffffffffffffffffffffffffffffffffffff1614156116d0576040517f08c379a00000000000000000000000000000000000000000000000000000000081526004016116c790612ba7565b60405180910390fd5b61174a603460008573ffffffffffffffffffffffffffffffffffffffff1673ffffffffffffffffffffffffffffffffffffffff16815260200190815260200160002060009054906101000a90046bffffffffffffffffffffffff1682604051806060016040528060308152602001612eae6030913961157f565b603460008573ffffffffffffffffffffffffffffffffffffffff1673ffffffffffffffffffffffffffffffffffffffff16815260200190815260200160002060006101000a8154816bffffffffffffffffffffffff02191690836bffffffffffffffffffffffff160217905550611831603460008473ffffffffffffffffffffffffffffffffffffffff1673ffffffffffffffffffffffffffffffffffffffff16815260200190815260200160002060009054906101000a90046bffffffffffffffffffffffff16826040518060600160405280602a8152602001612e4d602a9139611bb1565b603460008473ffffffffffffffffffffffffffffffffffffffff1673ffffffffffffffffffffffffffffffffffffffff16815260200190815260200160002060006101000a8154816bffffffffffffffffffffffff02191690836bffffffffffffffffffffffff1602179055508173ffffffffffffffffffffffffffffffffffffffff168373ffffffffffffffffffffffffffffffffffffffff167fddf252ad1be2c89b69c2b068fc378daa952ba7f163c4a11628f55a4df523b3ef836040516118fb9190612c61565b60405180910390a36119cc603560008573ffffffffffffffffffffffffffffffffffffffff1673ffffffffffffffffffffffffffffffffffffffff16815260200190815260200160002060009054906101000a900473ffffffffffffffffffffffffffffffffffffffff16603560008573ffffffffffffffffffffffffffffffffffffffff1673ffffffffffffffffffffffffffffffffffffffff16815260200190815260200160002060009054906101000a900473ffffffffffffffffffffffffffffffffffffffff1683611c27565b505050565b6000603560008473ffffffffffffffffffffffffffffffffffffffff1673ffffffffffffffffffffffffffffffffffffffff16815260200190815260200160002060009054906101000a900473ffffffffffffffffffffffffffffffffffffffff1690506000603460008573ffffffffffffffffffffffffffffffffffffffff1673ffffffffffffffffffffffffffffffffffffffff16815260200190815260200160002060009054906101000a90046bffffffffffffffffffffffff16905082603560008673ffffffffffffffffffffffffffffffffffffffff1673ffffffffffffffffffffffffffffffffffffffff16815260200190815260200160002060006101000a81548173ffffffffffffffffffffffffffffffffffffffff021916908373ffffffffffffffffffffffffffffffffffffffff1602179055508273ffffffffffffffffffffffffffffffffffffffff168273ffffffffffffffffffffffffffffffffffffffff168573ffffffffffffffffffffffffffffffffffffffff167f3134e8a2e6d97e929a7e54011ea5485d7d196dd5f0ba4d4ef95803e8e3fc257f60405160405180910390a4611b8b828483611c27565b50505050565b60006001905090565b6000803090506000813b9050600081149250505090565b6000808385019050846bffffffffffffffffffffffff16816bffffffffffffffffffffffff1610158390611c1b576040517f08c379a0000000000000000000000000000000000000000000000000000000008152600401611c129190612ae5565b60405180910390fd5b50809150509392505050565b8173ffffffffffffffffffffffffffffffffffffffff168373ffffffffffffffffffffffffffffffffffffffff1614158015611c7157506000816bffffffffffffffffffffffff16115b15611f1d57600073ffffffffffffffffffffffffffffffffffffffff168373ffffffffffffffffffffffffffffffffffffffff1614611dc9576000603760008573ffffffffffffffffffffffffffffffffffffffff1673ffffffffffffffffffffffffffffffffffffffff16815260200190815260200160002060009054906101000a900463ffffffff1690506000808263ffffffff1611611d14576000611d90565b603660008673ffffffffffffffffffffffffffffffffffffffff1673ffffffffffffffffffffffffffffffffffffffff16815260200190815260200160002060006001840363ffffffff1663ffffffff16815260200190815260200160002060000160049054906101000a90046bffffffffffffffffffffffff165b90506000611db78285604051806060016040528060228152602001612f0c6022913961157f565b9050611dc586848484611f22565b5050505b600073ffffffffffffffffffffffffffffffffffffffff168273ffffffffffffffffffffffffffffffffffffffff1614611f1c576000603760008473ffffffffffffffffffffffffffffffffffffffff1673ffffffffffffffffffffffffffffffffffffffff16815260200190815260200160002060009054906101000a900463ffffffff1690506000808263ffffffff1611611e67576000611ee3565b603660008573ffffffffffffffffffffffffffffffffffffffff1673ffffffffffffffffffffffffffffffffffffffff16815260200190815260200160002060006001840363ffffffff1663ffffffff16815260200190815260200160002060000160049054906101000a90046bffffffffffffffffffffffff165b90506000611f0a8285604051806060016040528060218152602001612f2e60219139611bb1565b9050611f1885848484611f22565b5050505b5b505050565b6000611f46436040518060600160405280602e8152602001612ede602e9139612215565b905060008463ffffffff16118015611fdb57508063ffffffff16603660008773ffffffffffffffffffffffffffffffffffffffff1673ffffffffffffffffffffffffffffffffffffffff16815260200190815260200160002060006001870363ffffffff1663ffffffff16815260200190815260200160002060000160009054906101000a900463ffffffff1663ffffffff16145b156120765781603660008773ffffffffffffffffffffffffffffffffffffffff1673ffffffffffffffffffffffffffffffffffffffff16815260200190815260200160002060006001870363ffffffff1663ffffffff16815260200190815260200160002060000160046101000a8154816bffffffffffffffffffffffff02191690836bffffffffffffffffffffffff1602179055506121be565b60405180604001604052808263ffffffff168152602001836bffffffffffffffffffffffff16815250603660008773ffffffffffffffffffffffffffffffffffffffff1673ffffffffffffffffffffffffffffffffffffffff16815260200190815260200160002060008663ffffffff1663ffffffff16815260200190815260200160002060008201518160000160006101000a81548163ffffffff021916908363ffffffff16021790555060208201518160000160046101000a8154816bffffffffffffffffffffffff02191690836bffffffffffffffffffffffff16021790555090505060018401603760008773ffffffffffffffffffffffffffffffffffffffff1673ffffffffffffffffffffffffffffffffffffffff16815260200190815260200160002060006101000a81548163ffffffff021916908363ffffffff1602179055505b8473ffffffffffffffffffffffffffffffffffffffff167fdec2bacdd2f05b59de34da9b523dff8be42e5e38e818c82fdb0bae774387a7248484604051612206929190612c97565b60405180910390a25050505050565b600064010000000083108290612261576040517f08c379a00000000000000000000000000000000000000000000000000000000081526004016122589190612ae5565b60405180910390fd5b5082905092915050565b6040518060400160405280600063ffffffff16815260200160006bffffffffffffffffffffffff1681525090565b6000813590506122a881612dd9565b92915050565b6000813590506122bd81612df0565b92915050565b6000813590506122d281612e07565b92915050565b6000813590506122e781612e1e565b92915050565b6000813590506122fc81612e35565b92915050565b60006020828403121561231457600080fd5b600061232284828501612299565b91505092915050565b6000806040838503121561233e57600080fd5b600061234c85828601612299565b925050602061235d85828601612299565b9150509250929050565b60008060006060848603121561237c57600080fd5b600061238a86828701612299565b935050602061239b86828701612299565b92505060406123ac868287016122c3565b9150509250925092565b600080604083850312156123c957600080fd5b60006123d785828601612299565b92505060206123e8858286016122c3565b9150509250929050565b60008060008060008060c0878903121561240b57600080fd5b600061241989828a01612299565b965050602061242a89828a016122c3565b955050604061243b89828a016122c3565b945050606061244c89828a016122ed565b935050608061245d89828a016122ae565b92505060a061246e89828a016122ae565b9150509295509295509295565b6000806040838503121561248e57600080fd5b600061249c85828601612299565b92505060206124ad858286016122d8565b9150509250929050565b6124c081612cf2565b82525050565b6124cf81612d04565b82525050565b6124de81612d10565b82525050565b6124f56124f082612d10565b612dbe565b82525050565b600061250682612ccb565b6125108185612cd6565b9350612520818560208601612d8b565b61252981612dc8565b840191505092915050565b600061253f82612cc0565b6125498185612cd6565b9350612559818560208601612d8b565b61256281612dc8565b840191505092915050565b600061257a602183612cd6565b91507f6765745072696f72566f7465733a206e6f74207965742064657465726d696e6560008301527f64000000000000000000000000000000000000000000000000000000000000006020830152604082019050919050565b60006125e0600283612ce7565b91507f19010000000000000000000000000000000000000000000000000000000000006000830152600282019050919050565b6000612620602083612cd6565b91507f64656c656761746542795369673a20696e76616c6964207369676e61747572656000830152602082019050919050565b6000612660602083612cd6565b91507f64656c656761746542795369673a207369676e617475726520657870697265646000830152602082019050919050565b60006126a0604383612ce7565b91507f454950373132446f6d61696e28737472696e67206e616d652c75696e7432353660008301527f20636861696e49642c6164647265737320766572696679696e67436f6e74726160208301527f63742900000000000000000000000000000000000000000000000000000000006040830152604382019050919050565b600061272c603683612cd6565b91507f5f7472616e73666572546f6b656e733a2063616e6e6f74207472616e7366657260008301527f2066726f6d20746865207a65726f2061646472657373000000000000000000006020830152604082019050919050565b6000612792602e83612cd6565b91507f436f6e747261637420696e7374616e63652068617320616c726561647920626560008301527f656e20696e697469616c697a65640000000000000000000000000000000000006020830152604082019050919050565b60006127f8603483612cd6565b91507f5f7472616e73666572546f6b656e733a2063616e6e6f74207472616e7366657260008301527f20746f20746865207a65726f20616464726573730000000000000000000000006020830152604082019050919050565b600061285e601c83612cd6565b91507f64656c656761746542795369673a20696e76616c6964206e6f6e6365000000006000830152602082019050919050565b600061289e603a83612ce7565b91507f44656c65676174696f6e28616464726573732064656c6567617465652c75696e60008301527f74323536206e6f6e63652c75696e7432353620657870697279290000000000006020830152603a82019050919050565b61290081612d3a565b82525050565b61290f81612d44565b82525050565b61291e81612d54565b82525050565b61292d81612d79565b82525050565b61293c81612d61565b82525050565b600061294d826125d3565b915061295982856124e4565b60208201915061296982846124e4565b6020820191508190509392505050565b600061298482612693565b9150819050919050565b600061299982612891565b9150819050919050565b60006020820190506129b860008301846124b7565b92915050565b60006020820190506129d360008301846124c6565b92915050565b60006020820190506129ee60008301846124d5565b92915050565b6000608082019050612a0960008301876124d5565b612a1660208301866124b7565b612a2360408301856128f7565b612a3060608301846128f7565b95945050505050565b6000608082019050612a4e60008301876124d5565b612a5b60208301866124d5565b612a6860408301856128f7565b612a7560608301846124b7565b95945050505050565b6000608082019050612a9360008301876124d5565b612aa06020830186612915565b612aad60408301856124d5565b612aba60608301846124d5565b95945050505050565b60006020820190508181036000830152612add8184612534565b905092915050565b60006020820190508181036000830152612aff81846124fb565b905092915050565b60006020820190508181036000830152612b208161256d565b9050919050565b60006020820190508181036000830152612b4081612613565b9050919050565b60006020820190508181036000830152612b6081612653565b9050919050565b60006020820190508181036000830152612b808161271f565b9050919050565b60006020820190508181036000830152612ba081612785565b9050919050565b60006020820190508181036000830152612bc0816127eb565b9050919050565b60006020820190508181036000830152612be081612851565b9050919050565b6000602082019050612bfc60008301846128f7565b92915050565b6000602082019050612c176000830184612906565b92915050565b6000604082019050612c326000830185612906565b612c3f6020830184612933565b9392505050565b6000602082019050612c5b6000830184612915565b92915050565b6000602082019050612c766000830184612924565b92915050565b6000602082019050612c916000830184612933565b92915050565b6000604082019050612cac6000830185612924565b612cb96020830184612924565b9392505050565b600081519050919050565b600081519050919050565b600082825260208201905092915050565b600081905092915050565b6000612cfd82612d1a565b9050919050565b60008115159050919050565b6000819050919050565b600073ffffffffffffffffffffffffffffffffffffffff82169050919050565b6000819050919050565b600063ffffffff82169050919050565b600060ff82169050919050565b60006bffffffffffffffffffffffff82169050919050565b6000612d8482612d61565b9050919050565b60005b83811015612da9578082015181840152602081019050612d8e565b83811115612db8576000848401525b50505050565b6000819050919050565b6000601f19601f8301169050919050565b612de281612cf2565b8114612ded57600080fd5b50565b612df981612d10565b8114612e0457600080fd5b50565b612e1081612d3a565b8114612e1b57600080fd5b50565b612e2781612d44565b8114612e3257600080fd5b50565b612e3e81612d54565b8114612e4957600080fd5b5056fe5f7472616e73666572546f6b656e733a207472616e7366657220616d6f756e74206f766572666c6f77737472616e7366657246726f6d3a207472616e7366657220616d6f756e742065786365656473207370656e64657220616c6c6f77616e63655f7472616e73666572546f6b656e733a207472616e7366657220616d6f756e7420657863656564732062616c616e63655f7772697465436865636b706f696e743a20626c6f636b206e756d626572206578636565647320333220626974735f6d6f7665566f7465733a20766f746520616d6f756e7420756e646572666c6f77735f6d6f7665566f7465733a20766f746520616d6f756e74206f766572666c6f7773a365627a7a7231582051e7534a045206ad4b96df5d394e4579d20b2321b30e4b2fffbbeb3467b9aea96c6578706572696d656e74616cf564736f6c63430005100040",
  "source": "pragma solidity ^0.5.16;\npragma experimental ABIEncoderV2;\n\nimport \"@openzeppelin/upgrades/contracts/Initializable.sol\";\n\n\ncontract Pharmacy is Initializable {\n    /// @notice EIP-20 token name for this token\n    string public constant name = \"Pharmacy DeFi\";\n\n    /// @notice EIP-20 token symbol for this token\n    string public constant symbol = \"PhaD\";\n\n    /// @notice EIP-20 token decimals for this token\n    uint8 public constant decimals = 18;\n\n    /// @notice Total number of tokens in circulation\n    uint public constant totalSupply = 10000000e18; // 10 million PhaD\n\n    /// @notice Allowance amounts on behalf of others\n    mapping (address => mapping (address => uint96)) internal allowances;\n\n    /// @notice Official record of token balances for each account\n    mapping (address => uint96) internal balances;\n\n    /// @notice A record of each accounts delegate\n    mapping (address => address) public delegates;\n\n    /// @notice A checkpoint for marking number of votes from a given block\n    struct Checkpoint {\n        uint32 fromBlock;\n        uint96 votes;\n    }\n\n    /// @notice A record of votes checkpoints for each account, by index\n    mapping (address => mapping (uint32 => Checkpoint)) public checkpoints;\n\n    /// @notice The number of checkpoints for each account\n    mapping (address => uint32) public numCheckpoints;\n\n    /// @notice The EIP-712 typehash for the contract's domain\n    bytes32 public constant DOMAIN_TYPEHASH = keccak256(\"EIP712Domain(string name,uint256 chainId,address verifyingContract)\");\n\n    /// @notice The EIP-712 typehash for the delegation struct used by the contract\n    bytes32 public constant DELEGATION_TYPEHASH = keccak256(\"Delegation(address delegatee,uint256 nonce,uint256 expiry)\");\n\n    /// @notice A record of states for signing / validating signatures\n    mapping (address => uint) public nonces;\n\n    /// @notice An event thats emitted when an account changes its delegate\n    event DelegateChanged(address indexed delegator, address indexed fromDelegate, address indexed toDelegate);\n\n    /// @notice An event thats emitted when a delegate account's vote balance changes\n    event DelegateVotesChanged(address indexed delegate, uint previousBalance, uint newBalance);\n\n    /// @notice The standard EIP-20 transfer event\n    event Transfer(address indexed from, address indexed to, uint256 amount);\n\n    /// @notice The standard EIP-20 approval event\n    event Approval(address indexed owner, address indexed spender, uint256 amount);\n\n    /**\n     * @notice Initialize a new PhaD token\n     * @param account The initial account to grant all the tokens\n     */\n    function initialize(address account) public initializer {\n        balances[account] = uint96(totalSupply);\n        emit Transfer(address(0), account, totalSupply);\n    }\n\n    /**\n     * @notice Get the number of tokens `spender` is approved to spend on behalf of `account`\n     * @param account The address of the account holding the funds\n     * @param spender The address of the account spending the funds\n     * @return The number of tokens approved\n     */\n    function allowance(address account, address spender) external view returns (uint) {\n        return allowances[account][spender];\n    }\n\n    /**\n     * @notice Approve `spender` to transfer up to `amount` from `src`\n     * @dev This will overwrite the approval amount for `spender`\n     *  and is subject to issues noted [here](https://eips.ethereum.org/EIPS/eip-20#approve)\n     * @param spender The address of the account which may transfer tokens\n     * @param rawAmount The number of tokens that are approved (2^256-1 means infinite)\n     * @return Whether or not the approval succeeded\n     */\n    function approve(address spender, uint rawAmount) external returns (bool) {\n        uint96 amount;\n        if (rawAmount == uint(-1)) {\n            amount = uint96(-1);\n        } else {\n            amount = safe96(rawAmount, \"approve: amount exceeds 96 bits\");\n        }\n\n        allowances[msg.sender][spender] = amount;\n\n        emit Approval(msg.sender, spender, amount);\n        return true;\n    }\n\n    /**\n     * @notice Get the number of tokens held by the `account`\n     * @param account The address of the account to get the balance of\n     * @return The number of tokens held\n     */\n    function balanceOf(address account) external view returns (uint) {\n        return balances[account];\n    }\n\n    /**\n     * @notice Transfer `amount` tokens from `msg.sender` to `dst`\n     * @param dst The address of the destination account\n     * @param rawAmount The number of tokens to transfer\n     * @return Whether or not the transfer succeeded\n     */\n    function transfer(address dst, uint rawAmount) external returns (bool) {\n        uint96 amount = safe96(rawAmount, \"transfer: amount exceeds 96 bits\");\n        _transferTokens(msg.sender, dst, amount);\n        return true;\n    }\n\n    /**\n     * @notice Transfer `amount` tokens from `src` to `dst`\n     * @param src The address of the source account\n     * @param dst The address of the destination account\n     * @param rawAmount The number of tokens to transfer\n     * @return Whether or not the transfer succeeded\n     */\n    function transferFrom(address src, address dst, uint rawAmount) external returns (bool) {\n        address spender = msg.sender;\n        uint96 spenderAllowance = allowances[src][spender];\n        uint96 amount = safe96(rawAmount, \"approve: amount exceeds 96 bits\");\n\n        if (spender != src && spenderAllowance != uint96(-1)) {\n            uint96 newAllowance = sub96(spenderAllowance, amount, \"transferFrom: transfer amount exceeds spender allowance\");\n            allowances[src][spender] = newAllowance;\n\n            emit Approval(src, spender, newAllowance);\n        }\n\n        _transferTokens(src, dst, amount);\n        return true;\n    }\n\n    /**\n     * @notice Delegate votes from `msg.sender` to `delegatee`\n     * @param delegatee The address to delegate votes to\n     */\n    function delegate(address delegatee) public {\n        return _delegate(msg.sender, delegatee);\n    }\n\n    /**\n     * @notice Delegates votes from signatory to `delegatee`\n     * @param delegatee The address to delegate votes to\n     * @param nonce The contract state required to match the signature\n     * @param expiry The time at which to expire the signature\n     * @param v The recovery byte of the signature\n     * @param r Half of the ECDSA signature pair\n     * @param s Half of the ECDSA signature pair\n     */\n    function delegateBySig(address delegatee, uint nonce, uint expiry, uint8 v, bytes32 r, bytes32 s) public {\n        bytes32 domainSeparator = keccak256(abi.encode(DOMAIN_TYPEHASH, keccak256(bytes(name)), getChainId(), address(this)));\n        bytes32 structHash = keccak256(abi.encode(DELEGATION_TYPEHASH, delegatee, nonce, expiry));\n        bytes32 digest = keccak256(abi.encodePacked(\"\\x19\\x01\", domainSeparator, structHash));\n        address signatory = ecrecover(digest, v, r, s);\n        require(signatory != address(0), \"delegateBySig: invalid signature\");\n        require(nonce == nonces[signatory]++, \"delegateBySig: invalid nonce\");\n        require(now <= expiry, \"delegateBySig: signature expired\");\n        return _delegate(signatory, delegatee);\n    }\n\n    /**\n     * @notice Gets the current votes balance for `account`\n     * @param account The address to get votes balance\n     * @return The number of current votes for `account`\n     */\n    function getCurrentVotes(address account) external view returns (uint96) {\n        uint32 nCheckpoints = numCheckpoints[account];\n        return nCheckpoints > 0 ? checkpoints[account][nCheckpoints - 1].votes : 0;\n    }\n\n    /**\n     * @notice Determine the prior number of votes for an account as of a block number\n     * @dev Block number must be a finalized block or else this function will revert to prevent misinformation.\n     * @param account The address of the account to check\n     * @param blockNumber The block number to get the vote balance at\n     * @return The number of votes the account had as of the given block\n     */\n    function getPriorVotes(address account, uint blockNumber) public view returns (uint96) {\n        require(blockNumber < block.number, \"getPriorVotes: not yet determined\");\n\n        uint32 nCheckpoints = numCheckpoints[account];\n        if (nCheckpoints == 0) {\n            return 0;\n        }\n\n        // First check most recent balance\n        if (checkpoints[account][nCheckpoints - 1].fromBlock <= blockNumber) {\n            return checkpoints[account][nCheckpoints - 1].votes;\n        }\n\n        // Next check implicit zero balance\n        if (checkpoints[account][0].fromBlock > blockNumber) {\n            return 0;\n        }\n\n        uint32 lower = 0;\n        uint32 upper = nCheckpoints - 1;\n        while (upper > lower) {\n            uint32 center = upper - (upper - lower) / 2; // ceil, avoiding overflow\n            Checkpoint memory cp = checkpoints[account][center];\n            if (cp.fromBlock == blockNumber) {\n                return cp.votes;\n            } else if (cp.fromBlock < blockNumber) {\n                lower = center;\n            } else {\n                upper = center - 1;\n            }\n        }\n        return checkpoints[account][lower].votes;\n    }\n\n    function _delegate(address delegator, address delegatee) internal {\n        address currentDelegate = delegates[delegator];\n        uint96 delegatorBalance = balances[delegator];\n        delegates[delegator] = delegatee;\n\n        emit DelegateChanged(delegator, currentDelegate, delegatee);\n\n        _moveDelegates(currentDelegate, delegatee, delegatorBalance);\n    }\n\n    function _transferTokens(address src, address dst, uint96 amount) internal {\n        require(src != address(0), \"_transferTokens: cannot transfer from the zero address\");\n        require(dst != address(0), \"_transferTokens: cannot transfer to the zero address\");\n\n        balances[src] = sub96(balances[src], amount, \"_transferTokens: transfer amount exceeds balance\");\n        balances[dst] = add96(balances[dst], amount, \"_transferTokens: transfer amount overflows\");\n        emit Transfer(src, dst, amount);\n\n        _moveDelegates(delegates[src], delegates[dst], amount);\n    }\n\n    function _moveDelegates(address srcRep, address dstRep, uint96 amount) internal {\n        if (srcRep != dstRep && amount > 0) {\n            if (srcRep != address(0)) {\n                uint32 srcRepNum = numCheckpoints[srcRep];\n                uint96 srcRepOld = srcRepNum > 0 ? checkpoints[srcRep][srcRepNum - 1].votes : 0;\n                uint96 srcRepNew = sub96(srcRepOld, amount, \"_moveVotes: vote amount underflows\");\n                _writeCheckpoint(srcRep, srcRepNum, srcRepOld, srcRepNew);\n            }\n\n            if (dstRep != address(0)) {\n                uint32 dstRepNum = numCheckpoints[dstRep];\n                uint96 dstRepOld = dstRepNum > 0 ? checkpoints[dstRep][dstRepNum - 1].votes : 0;\n                uint96 dstRepNew = add96(dstRepOld, amount, \"_moveVotes: vote amount overflows\");\n                _writeCheckpoint(dstRep, dstRepNum, dstRepOld, dstRepNew);\n            }\n        }\n    }\n\n    function _writeCheckpoint(address delegatee, uint32 nCheckpoints, uint96 oldVotes, uint96 newVotes) internal {\n      uint32 blockNumber = safe32(block.number, \"_writeCheckpoint: block number exceeds 32 bits\");\n\n      if (nCheckpoints > 0 && checkpoints[delegatee][nCheckpoints - 1].fromBlock == blockNumber) {\n          checkpoints[delegatee][nCheckpoints - 1].votes = newVotes;\n      } else {\n          checkpoints[delegatee][nCheckpoints] = Checkpoint(blockNumber, newVotes);\n          numCheckpoints[delegatee] = nCheckpoints + 1;\n      }\n\n      emit DelegateVotesChanged(delegatee, oldVotes, newVotes);\n    }\n\n    function safe32(uint n, string memory errorMessage) internal pure returns (uint32) {\n        require(n < 2**32, errorMessage);\n        return uint32(n);\n    }\n\n    function safe96(uint n, string memory errorMessage) internal pure returns (uint96) {\n        require(n < 2**96, errorMessage);\n        return uint96(n);\n    }\n\n    function add96(uint96 a, uint96 b, string memory errorMessage) internal pure returns (uint96) {\n        uint96 c = a + b;\n        require(c >= a, errorMessage);\n        return c;\n    }\n\n    function sub96(uint96 a, uint96 b, string memory errorMessage) internal pure returns (uint96) {\n        require(b <= a, errorMessage);\n        return a - b;\n    }\n\n    function getChainId() internal pure returns (uint) {\n        // uint256 chainId;\n        // assembly { chainId := chainid() }\n        // return chainId;\n        return 1;   // mainnet id\n    }\n}\n",
  "sourcePath": "/home/me/new/a/core/contracts/PhaD.sol",
  "compiler": {
    "name": "solc",
    "version": "0.5.16+commit.9c3226ce.Emscripten.clang"
  },
  "schemaVersion": "3.3.4",
  "updatedAt": "2021-04-24T06:34:49.700Z",
  "devdoc": {
    "methods": {
      "allowance(address,address)": {
        "params": {
          "account": "The address of the account holding the funds",
          "spender": "The address of the account spending the funds"
        },
        "return": "The number of tokens approved"
      },
      "approve(address,uint256)": {
        "details": "This will overwrite the approval amount for `spender` and is subject to issues noted [here](https://eips.ethereum.org/EIPS/eip-20#approve)",
        "params": {
          "rawAmount": "The number of tokens that are approved (2^256-1 means infinite)",
          "spender": "The address of the account which may transfer tokens"
        },
        "return": "Whether or not the approval succeeded"
      },
      "balanceOf(address)": {
        "params": {
          "account": "The address of the account to get the balance of"
        },
        "return": "The number of tokens held"
      },
      "delegate(address)": {
        "params": {
          "delegatee": "The address to delegate votes to"
        }
      },
      "delegateBySig(address,uint256,uint256,uint8,bytes32,bytes32)": {
        "params": {
          "delegatee": "The address to delegate votes to",
          "expiry": "The time at which to expire the signature",
          "nonce": "The contract state required to match the signature",
          "r": "Half of the ECDSA signature pair",
          "s": "Half of the ECDSA signature pair",
          "v": "The recovery byte of the signature"
        }
      },
      "getCurrentVotes(address)": {
        "params": {
          "account": "The address to get votes balance"
        },
        "return": "The number of current votes for `account`"
      },
      "getPriorVotes(address,uint256)": {
        "details": "Block number must be a finalized block or else this function will revert to prevent misinformation.",
        "params": {
          "account": "The address of the account to check",
          "blockNumber": "The block number to get the vote balance at"
        },
        "return": "The number of votes the account had as of the given block"
      },
      "initialize(address)": {
        "params": {
          "account": "The initial account to grant all the tokens"
        }
      },
      "transfer(address,uint256)": {
        "params": {
          "dst": "The address of the destination account",
          "rawAmount": "The number of tokens to transfer"
        },
        "return": "Whether or not the transfer succeeded"
      },
      "transferFrom(address,address,uint256)": {
        "params": {
          "dst": "The address of the destination account",
          "rawAmount": "The number of tokens to transfer",
          "src": "The address of the source account"
        },
        "return": "Whether or not the transfer succeeded"
      }
    }
  },
  "userdoc": {
    "methods": {
      "allowance(address,address)": {
        "notice": "Get the number of tokens `spender` is approved to spend on behalf of `account`"
      },
      "approve(address,uint256)": {
        "notice": "Approve `spender` to transfer up to `amount` from `src`"
      },
      "balanceOf(address)": {
        "notice": "Get the number of tokens held by the `account`"
      },
      "delegate(address)": {
        "notice": "Delegate votes from `msg.sender` to `delegatee`"
      },
      "delegateBySig(address,uint256,uint256,uint8,bytes32,bytes32)": {
        "notice": "Delegates votes from signatory to `delegatee`"
      },
      "getCurrentVotes(address)": {
        "notice": "Gets the current votes balance for `account`"
      },
      "getPriorVotes(address,uint256)": {
        "notice": "Determine the prior number of votes for an account as of a block number"
      },
      "initialize(address)": {
        "notice": "Initialize a new PhaD token"
      },
      "transfer(address,uint256)": {
        "notice": "Transfer `amount` tokens from `msg.sender` to `dst`"
      },
      "transferFrom(address,address,uint256)": {
        "notice": "Transfer `amount` tokens from `src` to `dst`"
      }
    }
  }
}